{
  "contractName": "BaseRegistry",
  "abi": [
    {
      "constant": true,
      "inputs": [
        {
          "name": "",
          "type": "uint256"
        }
      ],
      "name": "keys",
      "outputs": [
        {
          "name": "",
          "type": "address"
        }
      ],
      "payable": false,
      "stateMutability": "view",
      "type": "function"
    },
    {
      "constant": false,
      "inputs": [
        {
          "name": "key",
          "type": "address"
        }
      ],
      "name": "unregister",
      "outputs": [],
      "payable": false,
      "stateMutability": "nonpayable",
      "type": "function"
    },
    {
      "constant": false,
      "inputs": [
        {
          "name": "key",
          "type": "address"
        },
        {
          "name": "url",
          "type": "string"
        }
      ],
      "name": "register",
      "outputs": [],
      "payable": false,
      "stateMutability": "nonpayable",
      "type": "function"
    },
    {
      "constant": false,
      "inputs": [],
      "name": "kill",
      "outputs": [],
      "payable": false,
      "stateMutability": "nonpayable",
      "type": "function"
    },
    {
      "constant": false,
      "inputs": [
        {
          "name": "key",
          "type": "address"
        }
      ],
      "name": "getTime",
      "outputs": [
        {
          "name": "",
          "type": "uint256"
        }
      ],
      "payable": false,
      "stateMutability": "nonpayable",
      "type": "function"
    },
    {
      "constant": false,
      "inputs": [
        {
          "name": "key",
          "type": "address"
        }
      ],
      "name": "getRecord",
      "outputs": [
        {
          "name": "owner",
          "type": "address"
        },
        {
          "name": "time",
          "type": "uint256"
        },
        {
          "name": "url",
          "type": "string"
        }
      ],
      "payable": false,
      "stateMutability": "nonpayable",
      "type": "function"
    },
    {
      "constant": false,
      "inputs": [
        {
          "name": "rindex",
          "type": "uint256"
        }
      ],
      "name": "getRecordAtIndex",
      "outputs": [
        {
          "name": "key",
          "type": "address"
        },
        {
          "name": "owner",
          "type": "address"
        },
        {
          "name": "time",
          "type": "uint256"
        },
        {
          "name": "url",
          "type": "string"
        }
      ],
      "payable": false,
      "stateMutability": "nonpayable",
      "type": "function"
    },
    {
      "constant": false,
      "inputs": [
        {
          "name": "key",
          "type": "address"
        },
        {
          "name": "url",
          "type": "string"
        }
      ],
      "name": "update",
      "outputs": [],
      "payable": false,
      "stateMutability": "nonpayable",
      "type": "function"
    },
    {
      "constant": true,
      "inputs": [],
      "name": "owner",
      "outputs": [
        {
          "name": "",
          "type": "address"
        }
      ],
      "payable": false,
      "stateMutability": "view",
      "type": "function"
    },
    {
      "constant": true,
      "inputs": [],
      "name": "numRecords",
      "outputs": [
        {
          "name": "",
          "type": "uint256"
        }
      ],
      "payable": false,
      "stateMutability": "view",
      "type": "function"
    },
    {
      "constant": false,
      "inputs": [
        {
          "name": "key",
          "type": "address"
        },
        {
          "name": "newOwner",
          "type": "address"
        }
      ],
      "name": "transfer",
      "outputs": [],
      "payable": false,
      "stateMutability": "nonpayable",
      "type": "function"
    },
    {
      "constant": false,
      "inputs": [
        {
          "name": "key",
          "type": "address"
        }
      ],
      "name": "isRegistered",
      "outputs": [
        {
          "name": "",
          "type": "bool"
        }
      ],
      "payable": false,
      "stateMutability": "nonpayable",
      "type": "function"
    },
    {
      "constant": true,
      "inputs": [],
      "name": "creationTime",
      "outputs": [
        {
          "name": "",
          "type": "uint256"
        }
      ],
      "payable": false,
      "stateMutability": "view",
      "type": "function"
    },
    {
      "constant": false,
      "inputs": [
        {
          "name": "to",
          "type": "address"
        },
        {
          "name": "value",
          "type": "uint256"
        }
      ],
      "name": "withdraw",
      "outputs": [],
      "payable": false,
      "stateMutability": "nonpayable",
      "type": "function"
    },
    {
      "constant": false,
      "inputs": [
        {
          "name": "key",
          "type": "address"
        }
      ],
      "name": "getOwner",
      "outputs": [
        {
          "name": "",
          "type": "address"
        }
      ],
      "payable": false,
      "stateMutability": "nonpayable",
      "type": "function"
    }
  ],
  "bytecode": "0x6060604052336000806101000a81548173ffffffffffffffffffffffffffffffffffffffff021916908373ffffffffffffffffffffffffffffffffffffffff16021790555042600155341561005357600080fd5b6114ac806100626000396000f3006060604052600436106100db576000357c0100000000000000000000000000000000000000000000000000000000900463ffffffff1680630cb6aaf1146100e05780632ec2c2461461014357806332434a2e1461017c57806341c0e1b5146101f85780634b70cec41461020d578063617fba041461025a5780637bcd7fad14610346578063838e7c3a1461044f5780638da5cb5b146104cb578063b5d1990d14610520578063ba45b0b814610549578063c3c5a547146105a1578063d8270dce146105f2578063f3fef3a31461061b578063fa5441611461065d575b600080fd5b34156100eb57600080fd5b61010160048080359060200190919050506106d6565b604051808273ffffffffffffffffffffffffffffffffffffffff1673ffffffffffffffffffffffffffffffffffffffff16815260200191505060405180910390f35b341561014e57600080fd5b61017a600480803573ffffffffffffffffffffffffffffffffffffffff16906020019091905050610715565b005b341561018757600080fd5b6101f6600480803573ffffffffffffffffffffffffffffffffffffffff1690602001909190803590602001908201803590602001908080601f016020809104026020016040519081016040528093929190818152602001838380828437820191505050505050919050506109c5565b005b341561020357600080fd5b61020b610c11565b005b341561021857600080fd5b610244600480803573ffffffffffffffffffffffffffffffffffffffff16906020019091905050610ca6565b6040518082815260200191505060405180910390f35b341561026557600080fd5b610291600480803573ffffffffffffffffffffffffffffffffffffffff16906020019091905050610cf2565b604051808473ffffffffffffffffffffffffffffffffffffffff1673ffffffffffffffffffffffffffffffffffffffff16815260200183815260200180602001828103825283818151815260200191508051906020019080838360005b838110156103095780820151818401526020810190506102ee565b50505050905090810190601f1680156103365780820380516001836020036101000a031916815260200191505b5094505050505060405180910390f35b341561035157600080fd5b6103676004808035906020019091905050610e15565b604051808573ffffffffffffffffffffffffffffffffffffffff1673ffffffffffffffffffffffffffffffffffffffff1681526020018473ffffffffffffffffffffffffffffffffffffffff1673ffffffffffffffffffffffffffffffffffffffff16815260200183815260200180602001828103825283818151815260200191508051906020019080838360005b838110156104115780820151818401526020810190506103f6565b50505050905090810190601f16801561043e5780820380516001836020036101000a031916815260200191505b509550505050505060405180910390f35b341561045a57600080fd5b6104c9600480803573ffffffffffffffffffffffffffffffffffffffff1690602001909190803590602001908201803590602001908080601f01602080910402602001604051908101604052809392919081815260200183838082843782019150505050505091905050610fb1565b005b34156104d657600080fd5b6104de6110a3565b604051808273ffffffffffffffffffffffffffffffffffffffff1673ffffffffffffffffffffffffffffffffffffffff16815260200191505060405180910390f35b341561052b57600080fd5b6105336110c8565b6040518082815260200191505060405180910390f35b341561055457600080fd5b61059f600480803573ffffffffffffffffffffffffffffffffffffffff1690602001909190803573ffffffffffffffffffffffffffffffffffffffff169060200190919050506110ce565b005b34156105ac57600080fd5b6105d8600480803573ffffffffffffffffffffffffffffffffffffffff169060200190919050506111f3565b604051808215151515815260200191505060405180910390f35b34156105fd57600080fd5b610605611242565b6040518082815260200191505060405180910390f35b341561062657600080fd5b61065b600480803573ffffffffffffffffffffffffffffffffffffffff16906020019091908035906020019091905050611248565b005b341561066857600080fd5b610694600480803573ffffffffffffffffffffffffffffffffffffffff169060200190919050506112e7565b604051808273ffffffffffffffffffffffffffffffffffffffff1673ffffffffffffffffffffffffffffffffffffffff16815260200191505060405180910390f35b6004818154811015156106e557fe5b90600052602060002090016000915054906101000a900473ffffffffffffffffffffffffffffffffffffffff1681565b60003373ffffffffffffffffffffffffffffffffffffffff16600260008473ffffffffffffffffffffffffffffffffffffffff1673ffffffffffffffffffffffffffffffffffffffff16815260200190815260200160002060000160009054906101000a900473ffffffffffffffffffffffffffffffffffffffff1673ffffffffffffffffffffffffffffffffffffffff1614156109c157600260008373ffffffffffffffffffffffffffffffffffffffff1673ffffffffffffffffffffffffffffffffffffffff168152602001908152602001600020600201549050600260008373ffffffffffffffffffffffffffffffffffffffff1673ffffffffffffffffffffffffffffffffffffffff168152602001908152602001600020600080820160006101000a81549073ffffffffffffffffffffffffffffffffffffffff0219169055600182016000905560028201600090556003820160006108799190611353565b50506003600081548092919060019003919050555060046001600480549050038154811015156108a557fe5b906000526020600020900160009054906101000a900473ffffffffffffffffffffffffffffffffffffffff166004828154811015156108e057fe5b906000526020600020900160006101000a81548173ffffffffffffffffffffffffffffffffffffffff021916908373ffffffffffffffffffffffffffffffffffffffff160217905550806002600060048481548110151561093d57fe5b906000526020600020900160009054906101000a900473ffffffffffffffffffffffffffffffffffffffff1673ffffffffffffffffffffffffffffffffffffffff1673ffffffffffffffffffffffffffffffffffffffff1681526020019081526020016000206002018190555060048054809190600190036109bf919061139b565b505b5050565b6000600260008473ffffffffffffffffffffffffffffffffffffffff1673ffffffffffffffffffffffffffffffffffffffff168152602001908152602001600020600101541415610c085742600260008473ffffffffffffffffffffffffffffffffffffffff1673ffffffffffffffffffffffffffffffffffffffff1681526020019081526020016000206001018190555033600260008473ffffffffffffffffffffffffffffffffffffffff1673ffffffffffffffffffffffffffffffffffffffff16815260200190815260200160002060000160006101000a81548173ffffffffffffffffffffffffffffffffffffffff021916908373ffffffffffffffffffffffffffffffffffffffff160217905550600480549050600260008473ffffffffffffffffffffffffffffffffffffffff1673ffffffffffffffffffffffffffffffffffffffff1681526020019081526020016000206002018190555060048054809190600101610b38919061139b565b50816004600160048054905003815481101515610b5157fe5b906000526020600020900160006101000a81548173ffffffffffffffffffffffffffffffffffffffff021916908373ffffffffffffffffffffffffffffffffffffffff16021790555080600260008473ffffffffffffffffffffffffffffffffffffffff1673ffffffffffffffffffffffffffffffffffffffff1681526020019081526020016000206003019080519060200190610bf09291906113c7565b50600360008154809291906001019190505550610c0d565b600080fd5b5050565b6000809054906101000a900473ffffffffffffffffffffffffffffffffffffffff1673ffffffffffffffffffffffffffffffffffffffff163373ffffffffffffffffffffffffffffffffffffffff16141515610c6c57600080fd5b6000809054906101000a900473ffffffffffffffffffffffffffffffffffffffff1673ffffffffffffffffffffffffffffffffffffffff16ff5b6000600260008373ffffffffffffffffffffffffffffffffffffffff1673ffffffffffffffffffffffffffffffffffffffff168152602001908152602001600020600101549050919050565b600080610cfd611447565b6000600260008673ffffffffffffffffffffffffffffffffffffffff1673ffffffffffffffffffffffffffffffffffffffff16815260200190815260200160002090508060000160009054906101000a900473ffffffffffffffffffffffffffffffffffffffff16935080600101549250806003018054600181600116156101000203166002900480601f016020809104026020016040519081016040528092919081815260200182805460018160011615610100020316600290048015610e065780601f10610ddb57610100808354040283529160200191610e06565b820191906000526020600020905b815481529060010190602001808311610de957829003601f168201915b50505050509150509193909250565b6000806000610e22611447565b600060026000600488815481101515610e3757fe5b906000526020600020900160009054906101000a900473ffffffffffffffffffffffffffffffffffffffff1673ffffffffffffffffffffffffffffffffffffffff1673ffffffffffffffffffffffffffffffffffffffff1681526020019081526020016000209050600486815481101515610eae57fe5b906000526020600020900160009054906101000a900473ffffffffffffffffffffffffffffffffffffffff1694508060000160009054906101000a900473ffffffffffffffffffffffffffffffffffffffff16935080600101549250806003018054600181600116156101000203166002900480601f016020809104026020016040519081016040528092919081815260200182805460018160011615610100020316600290048015610fa25780601f10610f7757610100808354040283529160200191610fa2565b820191906000526020600020905b815481529060010190602001808311610f8557829003601f168201915b50505050509150509193509193565b3373ffffffffffffffffffffffffffffffffffffffff16600260008473ffffffffffffffffffffffffffffffffffffffff1673ffffffffffffffffffffffffffffffffffffffff16815260200190815260200160002060000160009054906101000a900473ffffffffffffffffffffffffffffffffffffffff1673ffffffffffffffffffffffffffffffffffffffff16141561109f5780600260008473ffffffffffffffffffffffffffffffffffffffff1673ffffffffffffffffffffffffffffffffffffffff168152602001908152602001600020600301908051906020019061109d9291906113c7565b505b5050565b6000809054906101000a900473ffffffffffffffffffffffffffffffffffffffff1681565b60035481565b3373ffffffffffffffffffffffffffffffffffffffff16600260008473ffffffffffffffffffffffffffffffffffffffff1673ffffffffffffffffffffffffffffffffffffffff16815260200190815260200160002060000160009054906101000a900473ffffffffffffffffffffffffffffffffffffffff1673ffffffffffffffffffffffffffffffffffffffff1614156111ea5780600260008473ffffffffffffffffffffffffffffffffffffffff1673ffffffffffffffffffffffffffffffffffffffff16815260200190815260200160002060000160006101000a81548173ffffffffffffffffffffffffffffffffffffffff021916908373ffffffffffffffffffffffffffffffffffffffff1602179055506111ef565b600080fd5b5050565b600080600260008473ffffffffffffffffffffffffffffffffffffffff1673ffffffffffffffffffffffffffffffffffffffff1681526020019081526020016000206001015414159050919050565b60015481565b6000809054906101000a900473ffffffffffffffffffffffffffffffffffffffff1673ffffffffffffffffffffffffffffffffffffffff163373ffffffffffffffffffffffffffffffffffffffff161415156112a357600080fd5b8173ffffffffffffffffffffffffffffffffffffffff166108fc829081150290604051600060405180830381858888f1935050505015156112e357600080fd5b5050565b6000600260008373ffffffffffffffffffffffffffffffffffffffff1673ffffffffffffffffffffffffffffffffffffffff16815260200190815260200160002060000160009054906101000a900473ffffffffffffffffffffffffffffffffffffffff169050919050565b50805460018160011615610100020316600290046000825580601f106113795750611398565b601f016020900490600052602060002090810190611397919061145b565b5b50565b8154818355818115116113c2578183600052602060002091820191016113c1919061145b565b5b505050565b828054600181600116156101000203166002900490600052602060002090601f016020900481019282601f1061140857805160ff1916838001178555611436565b82800160010185558215611436579182015b8281111561143557825182559160200191906001019061141a565b5b509050611443919061145b565b5090565b602060405190810160405280600081525090565b61147d91905b80821115611479576000816000905550600101611461565b5090565b905600a165627a7a723058206c6e1a7ec75f25ba83f886b93c772e66ed2e1051bcc70c3ccce8f6afb0a305cd0029",
  "source": "pragma solidity ^0.4.11;\n\n// This is the base contract that your contract PocketNodeRegistry extends from.\ncontract BaseRegistry {\n\n    // The owner of this registry.\n    address public owner = msg.sender;\n\n    uint public creationTime = now;\n\n    // This struct keeps all data for a Record.\n    struct Record {\n        // Keeps the address of this record creator.\n        address owner;\n        // Keeps the time when this record was created.\n        uint time;\n        // Keeps the index of the keys array for fast lookup\n        uint keysIndex;\n        string url;\n    }\n\n    // This mapping keeps the records of this Registry.\n    mapping(address => Record) records;\n\n    // Keeps the total numbers of records in this Registry.\n    uint public numRecords;\n\n    // Keeps a list of all keys to interate the records.\n    address[] public keys;\n\n\n    modifier onlyOwner {\n        if (msg.sender != owner) revert();\n        _;\n    }\n\n\n\n    // This is the function that actually insert a record.\n    function register(address key, string url) {\n        if (records[key].time == 0) {\n            records[key].time = now;\n            records[key].owner = msg.sender;\n            records[key].keysIndex = keys.length;\n            keys.length++;\n            keys[keys.length - 1] = key;\n            records[key].url = url;\n            numRecords++;\n        } else {\n            // TODO: throw a more distinctive message\n            revert();\n        }\n    }\n\n    // Updates the values of the given record.\n    function update(address key, string url) {\n        // Only the owner can update his record.\n        if (records[key].owner == msg.sender) {\n            records[key].url = url;\n        }\n    }\n\n    // Unregister a given record\n    function unregister(address key) {\n        if (records[key].owner == msg.sender) {\n            uint keysIndex = records[key].keysIndex;\n            delete records[key];\n            numRecords--;\n            keys[keysIndex] = keys[keys.length - 1];\n            records[keys[keysIndex]].keysIndex = keysIndex;\n            keys.length--;\n        }\n    }\n\n    // Transfer ownership of a given record.\n    function transfer(address key, address newOwner) {\n        if (records[key].owner == msg.sender) {\n            records[key].owner = newOwner;\n        } else {\n            revert();\n        }\n    }\n\n    // Tells whether a given key is registered.\n    function isRegistered(address key) returns(bool) {\n        return records[key].time != 0;\n    }\n\n    function getRecordAtIndex(uint rindex) returns(address key, address owner, uint time, string url) {\n        Record record = records[keys[rindex]];\n        key = keys[rindex];\n        owner = record.owner;\n        time = record.time;\n        url = record.url;\n    }\n\n    function getRecord(address key) returns(address owner, uint time, string url) {\n        Record record = records[key];\n        owner = record.owner;\n        time = record.time;\n        url = record.url;\n    }\n\n    // Returns the owner of the given record. The owner could also be get\n    // by using the function getRecord but in that case all record attributes\n    // are returned.\n    function getOwner(address key) returns(address) {\n        return records[key].owner;\n    }\n\n    // Returns the registration time of the given record. The time could also\n    // be get by using the function getRecord but in that case all record attributes\n    // are returned.\n    function getTime(address key) returns(uint) {\n        return records[key].time;\n    }\n\n    // Registry owner can use this function to withdraw any value owned by\n    // the registry.\n    function withdraw(address to, uint value) onlyOwner {\n        if (!to.send(value)) revert();\n    }\n\n    function kill() onlyOwner {\n        suicide(owner);\n    }\n}\n",
  "sourcePath": "/Users/mokn/Development/Ethereum/pocket-core/contracts/registry/BaseRegistry.sol",
  "compiler": {
    "name": "solc",
    "version": "0.4.18+commit.9cf6e910.Emscripten.clang"
  },
  "schemaVersion": "1.0.1",
  "updatedAt": "2018-02-02T23:19:09.364Z"
}