{
  "contractName": "PocketRegistry",
  "abi": [
    {
      "constant": true,
      "inputs": [
        {
          "name": "",
          "type": "uint256"
        }
      ],
      "name": "keys",
      "outputs": [
        {
          "name": "",
          "type": "address"
        }
      ],
      "payable": false,
      "stateMutability": "view",
      "type": "function"
    },
    {
      "constant": true,
      "inputs": [],
      "name": "getCurrentNode",
      "outputs": [
        {
          "name": "",
          "type": "address"
        }
      ],
      "payable": false,
      "stateMutability": "view",
      "type": "function"
    },
    {
      "constant": false,
      "inputs": [],
      "name": "registerNode",
      "outputs": [],
      "payable": false,
      "stateMutability": "nonpayable",
      "type": "function"
    },
    {
      "constant": false,
      "inputs": [
        {
          "name": "_tokenAddress",
          "type": "address"
        }
      ],
      "name": "setTokenAddress",
      "outputs": [],
      "payable": false,
      "stateMutability": "nonpayable",
      "type": "function"
    },
    {
      "constant": false,
      "inputs": [
        {
          "name": "key",
          "type": "address"
        }
      ],
      "name": "unregister",
      "outputs": [],
      "payable": false,
      "stateMutability": "nonpayable",
      "type": "function"
    },
    {
      "constant": false,
      "inputs": [
        {
          "name": "key",
          "type": "address"
        },
        {
          "name": "url",
          "type": "string"
        }
      ],
      "name": "register",
      "outputs": [],
      "payable": false,
      "stateMutability": "nonpayable",
      "type": "function"
    },
    {
      "constant": true,
      "inputs": [],
      "name": "delegateContract",
      "outputs": [
        {
          "name": "",
          "type": "address"
        }
      ],
      "payable": false,
      "stateMutability": "view",
      "type": "function"
    },
    {
      "constant": false,
      "inputs": [],
      "name": "kill",
      "outputs": [],
      "payable": false,
      "stateMutability": "nonpayable",
      "type": "function"
    },
    {
      "constant": false,
      "inputs": [
        {
          "name": "key",
          "type": "address"
        }
      ],
      "name": "getTime",
      "outputs": [
        {
          "name": "",
          "type": "uint256"
        }
      ],
      "payable": false,
      "stateMutability": "nonpayable",
      "type": "function"
    },
    {
      "constant": false,
      "inputs": [
        {
          "name": "key",
          "type": "address"
        }
      ],
      "name": "getRecord",
      "outputs": [
        {
          "name": "owner",
          "type": "address"
        },
        {
          "name": "time",
          "type": "uint256"
        },
        {
          "name": "url",
          "type": "string"
        }
      ],
      "payable": false,
      "stateMutability": "nonpayable",
      "type": "function"
    },
    {
      "constant": true,
      "inputs": [
        {
          "name": "",
          "type": "uint256"
        }
      ],
      "name": "registeredNodes",
      "outputs": [
        {
          "name": "",
          "type": "address"
        }
      ],
      "payable": false,
      "stateMutability": "view",
      "type": "function"
    },
    {
      "constant": true,
      "inputs": [],
      "name": "getLiveNodes",
      "outputs": [
        {
          "name": "",
          "type": "address[]"
        }
      ],
      "payable": false,
      "stateMutability": "view",
      "type": "function"
    },
    {
      "constant": false,
      "inputs": [
        {
          "name": "rindex",
          "type": "uint256"
        }
      ],
      "name": "getRecordAtIndex",
      "outputs": [
        {
          "name": "key",
          "type": "address"
        },
        {
          "name": "owner",
          "type": "address"
        },
        {
          "name": "time",
          "type": "uint256"
        },
        {
          "name": "url",
          "type": "string"
        }
      ],
      "payable": false,
      "stateMutability": "nonpayable",
      "type": "function"
    },
    {
      "constant": false,
      "inputs": [
        {
          "name": "key",
          "type": "address"
        },
        {
          "name": "url",
          "type": "string"
        }
      ],
      "name": "update",
      "outputs": [],
      "payable": false,
      "stateMutability": "nonpayable",
      "type": "function"
    },
    {
      "constant": false,
      "inputs": [],
      "name": "createNodeContract",
      "outputs": [],
      "payable": false,
      "stateMutability": "nonpayable",
      "type": "function"
    },
    {
      "constant": true,
      "inputs": [],
      "name": "owner",
      "outputs": [
        {
          "name": "",
          "type": "address"
        }
      ],
      "payable": false,
      "stateMutability": "view",
      "type": "function"
    },
    {
      "constant": false,
      "inputs": [
        {
          "name": "_nodeDelegateAddress",
          "type": "address"
        }
      ],
      "name": "setNodeDelegateAddress",
      "outputs": [],
      "payable": false,
      "stateMutability": "nonpayable",
      "type": "function"
    },
    {
      "constant": true,
      "inputs": [],
      "name": "tokenAddress",
      "outputs": [
        {
          "name": "",
          "type": "address"
        }
      ],
      "payable": false,
      "stateMutability": "view",
      "type": "function"
    },
    {
      "constant": true,
      "inputs": [
        {
          "name": "",
          "type": "address"
        }
      ],
      "name": "userNode",
      "outputs": [
        {
          "name": "",
          "type": "address"
        }
      ],
      "payable": false,
      "stateMutability": "view",
      "type": "function"
    },
    {
      "constant": true,
      "inputs": [],
      "name": "numRecords",
      "outputs": [
        {
          "name": "",
          "type": "uint256"
        }
      ],
      "payable": false,
      "stateMutability": "view",
      "type": "function"
    },
    {
      "constant": false,
      "inputs": [
        {
          "name": "key",
          "type": "address"
        },
        {
          "name": "newOwner",
          "type": "address"
        }
      ],
      "name": "transfer",
      "outputs": [],
      "payable": false,
      "stateMutability": "nonpayable",
      "type": "function"
    },
    {
      "constant": false,
      "inputs": [
        {
          "name": "key",
          "type": "address"
        }
      ],
      "name": "isRegistered",
      "outputs": [
        {
          "name": "",
          "type": "bool"
        }
      ],
      "payable": false,
      "stateMutability": "nonpayable",
      "type": "function"
    },
    {
      "constant": true,
      "inputs": [],
      "name": "creationTime",
      "outputs": [
        {
          "name": "",
          "type": "uint256"
        }
      ],
      "payable": false,
      "stateMutability": "view",
      "type": "function"
    },
    {
      "constant": false,
      "inputs": [
        {
          "name": "_newDelegate",
          "type": "address"
        }
      ],
      "name": "changeDelegate",
      "outputs": [
        {
          "name": "",
          "type": "bool"
        }
      ],
      "payable": false,
      "stateMutability": "nonpayable",
      "type": "function"
    },
    {
      "constant": true,
      "inputs": [],
      "name": "nodeDelegateAddress",
      "outputs": [
        {
          "name": "",
          "type": "address"
        }
      ],
      "payable": false,
      "stateMutability": "view",
      "type": "function"
    },
    {
      "constant": false,
      "inputs": [
        {
          "name": "to",
          "type": "address"
        },
        {
          "name": "value",
          "type": "uint256"
        }
      ],
      "name": "withdraw",
      "outputs": [],
      "payable": false,
      "stateMutability": "nonpayable",
      "type": "function"
    },
    {
      "constant": false,
      "inputs": [
        {
          "name": "key",
          "type": "address"
        }
      ],
      "name": "getOwner",
      "outputs": [
        {
          "name": "",
          "type": "address"
        }
      ],
      "payable": false,
      "stateMutability": "nonpayable",
      "type": "function"
    },
    {
      "constant": true,
      "inputs": [
        {
          "name": "",
          "type": "uint256"
        }
      ],
      "name": "previousDelegates",
      "outputs": [
        {
          "name": "",
          "type": "address"
        }
      ],
      "payable": false,
      "stateMutability": "view",
      "type": "function"
    },
    {
      "inputs": [],
      "payable": false,
      "stateMutability": "nonpayable",
      "type": "constructor"
    },
    {
      "anonymous": false,
      "inputs": [
        {
          "indexed": false,
          "name": "oldAddress",
          "type": "address"
        },
        {
          "indexed": false,
          "name": "newAddress",
          "type": "address"
        }
      ],
      "name": "DelegateChanged",
      "type": "event"
    }
  ],
  "bytecode": "0x6060604052336000806101000a81548173ffffffffffffffffffffffffffffffffffffffff021916908373ffffffffffffffffffffffffffffffffffffffff16021790555042600155341561005357600080fd5b33600560006101000a81548173ffffffffffffffffffffffffffffffffffffffff021916908373ffffffffffffffffffffffffffffffffffffffff16021790555061215c806100a36000396000f30060606040526004361061016a576000357c0100000000000000000000000000000000000000000000000000000000900463ffffffff1680630cb6aaf11461016f57806314f26bc3146101d25780631680b35c1461022757806326a4e8d21461023c5780632ec2c2461461027557806332434a2e146102ae5780633c2b07251461032a57806341c0e1b51461037f5780634b70cec414610394578063617fba04146103e157806361ca89fa146104cd57806374e0865b146105305780637bcd7fad1461059a578063838e7c3a146106a357806383f3289e1461071f5780638da5cb5b146107345780639b23b080146107895780639d76ea58146107c2578063adf340e914610817578063b5d1990d14610890578063ba45b0b8146108b9578063c3c5a54714610911578063d8270dce14610962578063e38296e41461098b578063ec01508b146109dc578063f3fef3a314610a31578063fa54416114610a73578063fbd2dbad14610aec575b600080fd5b341561017a57600080fd5b6101906004808035906020019091905050610b4f565b604051808273ffffffffffffffffffffffffffffffffffffffff1673ffffffffffffffffffffffffffffffffffffffff16815260200191505060405180910390f35b34156101dd57600080fd5b6101e5610b8e565b604051808273ffffffffffffffffffffffffffffffffffffffff1673ffffffffffffffffffffffffffffffffffffffff16815260200191505060405180910390f35b341561023257600080fd5b61023a610bf5565b005b341561024757600080fd5b610273600480803573ffffffffffffffffffffffffffffffffffffffff16906020019091905050610cd3565b005b341561028057600080fd5b6102ac600480803573ffffffffffffffffffffffffffffffffffffffff16906020019091905050610de9565b005b34156102b957600080fd5b610328600480803573ffffffffffffffffffffffffffffffffffffffff1690602001909190803590602001908201803590602001908080601f01602080910402602001604051908101604052809392919081815260200183838082843782019150505050505091905050611099565b005b341561033557600080fd5b61033d6112e5565b604051808273ffffffffffffffffffffffffffffffffffffffff1673ffffffffffffffffffffffffffffffffffffffff16815260200191505060405180910390f35b341561038a57600080fd5b61039261130b565b005b341561039f57600080fd5b6103cb600480803573ffffffffffffffffffffffffffffffffffffffff169060200190919050506113a0565b6040518082815260200191505060405180910390f35b34156103ec57600080fd5b610418600480803573ffffffffffffffffffffffffffffffffffffffff169060200190919050506113ec565b604051808473ffffffffffffffffffffffffffffffffffffffff1673ffffffffffffffffffffffffffffffffffffffff16815260200183815260200180602001828103825283818151815260200191508051906020019080838360005b83811015610490578082015181840152602081019050610475565b50505050905090810190601f1680156104bd5780820380516001836020036101000a031916815260200191505b5094505050505060405180910390f35b34156104d857600080fd5b6104ee600480803590602001909190505061150f565b604051808273ffffffffffffffffffffffffffffffffffffffff1673ffffffffffffffffffffffffffffffffffffffff16815260200191505060405180910390f35b341561053b57600080fd5b61054361154e565b6040518080602001828103825283818151815260200191508051906020019060200280838360005b8381101561058657808201518184015260208101905061056b565b505050509050019250505060405180910390f35b34156105a557600080fd5b6105bb60048080359060200190919050506115e2565b604051808573ffffffffffffffffffffffffffffffffffffffff1673ffffffffffffffffffffffffffffffffffffffff1681526020018473ffffffffffffffffffffffffffffffffffffffff1673ffffffffffffffffffffffffffffffffffffffff16815260200183815260200180602001828103825283818151815260200191508051906020019080838360005b8381101561066557808201518184015260208101905061064a565b50505050905090810190601f1680156106925780820380516001836020036101000a031916815260200191505b509550505050505060405180910390f35b34156106ae57600080fd5b61071d600480803573ffffffffffffffffffffffffffffffffffffffff1690602001909190803590602001908201803590602001908080601f0160208091040260200160405190810160405280939291908181526020018383808284378201915050505050509190505061177e565b005b341561072a57600080fd5b610732611870565b005b341561073f57600080fd5b61074761194e565b604051808273ffffffffffffffffffffffffffffffffffffffff1673ffffffffffffffffffffffffffffffffffffffff16815260200191505060405180910390f35b341561079457600080fd5b6107c0600480803573ffffffffffffffffffffffffffffffffffffffff16906020019091905050611974565b005b34156107cd57600080fd5b6107d5611a8a565b604051808273ffffffffffffffffffffffffffffffffffffffff1673ffffffffffffffffffffffffffffffffffffffff16815260200191505060405180910390f35b341561082257600080fd5b61084e600480803573ffffffffffffffffffffffffffffffffffffffff16906020019091905050611ab0565b604051808273ffffffffffffffffffffffffffffffffffffffff1673ffffffffffffffffffffffffffffffffffffffff16815260200191505060405180910390f35b341561089b57600080fd5b6108a3611ae3565b6040518082815260200191505060405180910390f35b34156108c457600080fd5b61090f600480803573ffffffffffffffffffffffffffffffffffffffff1690602001909190803573ffffffffffffffffffffffffffffffffffffffff16906020019091905050611ae9565b005b341561091c57600080fd5b610948600480803573ffffffffffffffffffffffffffffffffffffffff16906020019091905050611c0e565b604051808215151515815260200191505060405180910390f35b341561096d57600080fd5b610975611c5d565b6040518082815260200191505060405180910390f35b341561099657600080fd5b6109c2600480803573ffffffffffffffffffffffffffffffffffffffff16906020019091905050611c63565b604051808215151515815260200191505060405180910390f35b34156109e757600080fd5b6109ef611e53565b604051808273ffffffffffffffffffffffffffffffffffffffff1673ffffffffffffffffffffffffffffffffffffffff16815260200191505060405180910390f35b3415610a3c57600080fd5b610a71600480803573ffffffffffffffffffffffffffffffffffffffff16906020019091908035906020019091905050611e79565b005b3415610a7e57600080fd5b610aaa600480803573ffffffffffffffffffffffffffffffffffffffff16906020019091905050611f18565b604051808273ffffffffffffffffffffffffffffffffffffffff1673ffffffffffffffffffffffffffffffffffffffff16815260200191505060405180910390f35b3415610af757600080fd5b610b0d6004808035906020019091905050611f84565b604051808273ffffffffffffffffffffffffffffffffffffffff1673ffffffffffffffffffffffffffffffffffffffff16815260200191505060405180910390f35b600481815481101515610b5e57fe5b90600052602060002090016000915054906101000a900473ffffffffffffffffffffffffffffffffffffffff1681565b6000600b60003373ffffffffffffffffffffffffffffffffffffffff1673ffffffffffffffffffffffffffffffffffffffff16815260200190815260200160002060009054906101000a900473ffffffffffffffffffffffffffffffffffffffff16905090565b600860009054906101000a900473ffffffffffffffffffffffffffffffffffffffff1673ffffffffffffffffffffffffffffffffffffffff1660405180807f72656769737465724e6f64652829000000000000000000000000000000000000815250600e01905060405180910390207c010000000000000000000000000000000000000000000000000000000090046040518163ffffffff167c01000000000000000000000000000000000000000000000000000000000281526004016000604051808303818661646e5a03f4925050501515610cd157600080fd5b565b600860009054906101000a900473ffffffffffffffffffffffffffffffffffffffff1673ffffffffffffffffffffffffffffffffffffffff1660405180807f736574546f6b656e416464726573732861646472657373290000000000000000815250601801905060405180910390207c01000000000000000000000000000000000000000000000000000000009004826040518263ffffffff167c0100000000000000000000000000000000000000000000000000000000028152600401808273ffffffffffffffffffffffffffffffffffffffff1673ffffffffffffffffffffffffffffffffffffffff1681526020019150506000604051808303818661646e5a03f4925050501515610de657600080fd5b50565b60003373ffffffffffffffffffffffffffffffffffffffff16600260008473ffffffffffffffffffffffffffffffffffffffff1673ffffffffffffffffffffffffffffffffffffffff16815260200190815260200160002060000160009054906101000a900473ffffffffffffffffffffffffffffffffffffffff1673ffffffffffffffffffffffffffffffffffffffff16141561109557600260008373ffffffffffffffffffffffffffffffffffffffff1673ffffffffffffffffffffffffffffffffffffffff168152602001908152602001600020600201549050600260008373ffffffffffffffffffffffffffffffffffffffff1673ffffffffffffffffffffffffffffffffffffffff168152602001908152602001600020600080820160006101000a81549073ffffffffffffffffffffffffffffffffffffffff021916905560018201600090556002820160009055600382016000610f4d9190611fc3565b5050600360008154809291906001900391905055506004600160048054905003815481101515610f7957fe5b906000526020600020900160009054906101000a900473ffffffffffffffffffffffffffffffffffffffff16600482815481101515610fb457fe5b906000526020600020900160006101000a81548173ffffffffffffffffffffffffffffffffffffffff021916908373ffffffffffffffffffffffffffffffffffffffff160217905550806002600060048481548110151561101157fe5b906000526020600020900160009054906101000a900473ffffffffffffffffffffffffffffffffffffffff1673ffffffffffffffffffffffffffffffffffffffff1673ffffffffffffffffffffffffffffffffffffffff168152602001908152602001600020600201819055506004805480919060019003611093919061200b565b505b5050565b6000600260008473ffffffffffffffffffffffffffffffffffffffff1673ffffffffffffffffffffffffffffffffffffffff1681526020019081526020016000206001015414156112dc5742600260008473ffffffffffffffffffffffffffffffffffffffff1673ffffffffffffffffffffffffffffffffffffffff1681526020019081526020016000206001018190555033600260008473ffffffffffffffffffffffffffffffffffffffff1673ffffffffffffffffffffffffffffffffffffffff16815260200190815260200160002060000160006101000a81548173ffffffffffffffffffffffffffffffffffffffff021916908373ffffffffffffffffffffffffffffffffffffffff160217905550600480549050600260008473ffffffffffffffffffffffffffffffffffffffff1673ffffffffffffffffffffffffffffffffffffffff168152602001908152602001600020600201819055506004805480919060010161120c919061200b565b5081600460016004805490500381548110151561122557fe5b906000526020600020900160006101000a81548173ffffffffffffffffffffffffffffffffffffffff021916908373ffffffffffffffffffffffffffffffffffffffff16021790555080600260008473ffffffffffffffffffffffffffffffffffffffff1673ffffffffffffffffffffffffffffffffffffffff16815260200190815260200160002060030190805190602001906112c4929190612037565b506003600081548092919060010191905055506112e1565b600080fd5b5050565b600860009054906101000a900473ffffffffffffffffffffffffffffffffffffffff1681565b6000809054906101000a900473ffffffffffffffffffffffffffffffffffffffff1673ffffffffffffffffffffffffffffffffffffffff163373ffffffffffffffffffffffffffffffffffffffff1614151561136657600080fd5b6000809054906101000a900473ffffffffffffffffffffffffffffffffffffffff1673ffffffffffffffffffffffffffffffffffffffff16ff5b6000600260008373ffffffffffffffffffffffffffffffffffffffff1673ffffffffffffffffffffffffffffffffffffffff168152602001908152602001600020600101549050919050565b6000806113f76120b7565b6000600260008673ffffffffffffffffffffffffffffffffffffffff1673ffffffffffffffffffffffffffffffffffffffff16815260200190815260200160002090508060000160009054906101000a900473ffffffffffffffffffffffffffffffffffffffff16935080600101549250806003018054600181600116156101000203166002900480601f0160208091040260200160405190810160405280929190818152602001828054600181600116156101000203166002900480156115005780601f106114d557610100808354040283529160200191611500565b820191906000526020600020905b8154815290600101906020018083116114e357829003601f168201915b50505050509150509193909250565b600a8181548110151561151e57fe5b90600052602060002090016000915054906101000a900473ffffffffffffffffffffffffffffffffffffffff1681565b6115566120cb565b600a8054806020026020016040519081016040528092919081815260200182805480156115d857602002820191906000526020600020905b8160009054906101000a900473ffffffffffffffffffffffffffffffffffffffff1673ffffffffffffffffffffffffffffffffffffffff168152602001906001019080831161158e575b5050505050905090565b60008060006115ef6120b7565b60006002600060048881548110151561160457fe5b906000526020600020900160009054906101000a900473ffffffffffffffffffffffffffffffffffffffff1673ffffffffffffffffffffffffffffffffffffffff1673ffffffffffffffffffffffffffffffffffffffff168152602001908152602001600020905060048681548110151561167b57fe5b906000526020600020900160009054906101000a900473ffffffffffffffffffffffffffffffffffffffff1694508060000160009054906101000a900473ffffffffffffffffffffffffffffffffffffffff16935080600101549250806003018054600181600116156101000203166002900480601f01602080910402602001604051908101604052809291908181526020018280546001816001161561010002031660029004801561176f5780601f106117445761010080835404028352916020019161176f565b820191906000526020600020905b81548152906001019060200180831161175257829003601f168201915b50505050509150509193509193565b3373ffffffffffffffffffffffffffffffffffffffff16600260008473ffffffffffffffffffffffffffffffffffffffff1673ffffffffffffffffffffffffffffffffffffffff16815260200190815260200160002060000160009054906101000a900473ffffffffffffffffffffffffffffffffffffffff1673ffffffffffffffffffffffffffffffffffffffff16141561186c5780600260008473ffffffffffffffffffffffffffffffffffffffff1673ffffffffffffffffffffffffffffffffffffffff168152602001908152602001600020600301908051906020019061186a929190612037565b505b5050565b600860009054906101000a900473ffffffffffffffffffffffffffffffffffffffff1673ffffffffffffffffffffffffffffffffffffffff1660405180807f6372656174654e6f6465436f6e74726163742829000000000000000000000000815250601401905060405180910390207c010000000000000000000000000000000000000000000000000000000090046040518163ffffffff167c01000000000000000000000000000000000000000000000000000000000281526004016000604051808303818661646e5a03f492505050151561194c57600080fd5b565b600560009054906101000a900473ffffffffffffffffffffffffffffffffffffffff1681565b600860009054906101000a900473ffffffffffffffffffffffffffffffffffffffff1673ffffffffffffffffffffffffffffffffffffffff1660405180807f7365744e6f646544656c65676174654164647265737328616464726573732900815250601f01905060405180910390207c01000000000000000000000000000000000000000000000000000000009004826040518263ffffffff167c0100000000000000000000000000000000000000000000000000000000028152600401808273ffffffffffffffffffffffffffffffffffffffff1673ffffffffffffffffffffffffffffffffffffffff1681526020019150506000604051808303818661646e5a03f4925050501515611a8757600080fd5b50565b600760009054906101000a900473ffffffffffffffffffffffffffffffffffffffff1681565b600b6020528060005260406000206000915054906101000a900473ffffffffffffffffffffffffffffffffffffffff1681565b60035481565b3373ffffffffffffffffffffffffffffffffffffffff16600260008473ffffffffffffffffffffffffffffffffffffffff1673ffffffffffffffffffffffffffffffffffffffff16815260200190815260200160002060000160009054906101000a900473ffffffffffffffffffffffffffffffffffffffff1673ffffffffffffffffffffffffffffffffffffffff161415611c055780600260008473ffffffffffffffffffffffffffffffffffffffff1673ffffffffffffffffffffffffffffffffffffffff16815260200190815260200160002060000160006101000a81548173ffffffffffffffffffffffffffffffffffffffff021916908373ffffffffffffffffffffffffffffffffffffffff160217905550611c0a565b600080fd5b5050565b600080600260008473ffffffffffffffffffffffffffffffffffffffff1673ffffffffffffffffffffffffffffffffffffffff1681526020019081526020016000206001015414159050919050565b60015481565b600080600860009054906101000a900473ffffffffffffffffffffffffffffffffffffffff1673ffffffffffffffffffffffffffffffffffffffff168373ffffffffffffffffffffffffffffffffffffffff16141515611e485760098054806001018281611cd191906120df565b91600052602060002090016000600860009054906101000a900473ffffffffffffffffffffffffffffffffffffffff16909190916101000a81548173ffffffffffffffffffffffffffffffffffffffff021916908373ffffffffffffffffffffffffffffffffffffffff16021790555050600860009054906101000a900473ffffffffffffffffffffffffffffffffffffffff16905082600860006101000a81548173ffffffffffffffffffffffffffffffffffffffff021916908373ffffffffffffffffffffffffffffffffffffffff1602179055507fef9fc1dee6010109e6e3b21e51d44028e246dbad8a5a71ea192a30b19e1f457f8184604051808373ffffffffffffffffffffffffffffffffffffffff1673ffffffffffffffffffffffffffffffffffffffff1681526020018273ffffffffffffffffffffffffffffffffffffffff1673ffffffffffffffffffffffffffffffffffffffff1681526020019250505060405180910390a160019150611e4d565b600091505b50919050565b600660009054906101000a900473ffffffffffffffffffffffffffffffffffffffff1681565b6000809054906101000a900473ffffffffffffffffffffffffffffffffffffffff1673ffffffffffffffffffffffffffffffffffffffff163373ffffffffffffffffffffffffffffffffffffffff16141515611ed457600080fd5b8173ffffffffffffffffffffffffffffffffffffffff166108fc829081150290604051600060405180830381858888f193505050501515611f1457600080fd5b5050565b6000600260008373ffffffffffffffffffffffffffffffffffffffff1673ffffffffffffffffffffffffffffffffffffffff16815260200190815260200160002060000160009054906101000a900473ffffffffffffffffffffffffffffffffffffffff169050919050565b600981815481101515611f9357fe5b90600052602060002090016000915054906101000a900473ffffffffffffffffffffffffffffffffffffffff1681565b50805460018160011615610100020316600290046000825580601f10611fe95750612008565b601f016020900490600052602060002090810190612007919061210b565b5b50565b81548183558181151161203257818360005260206000209182019101612031919061210b565b5b505050565b828054600181600116156101000203166002900490600052602060002090601f016020900481019282601f1061207857805160ff19168380011785556120a6565b828001600101855582156120a6579182015b828111156120a557825182559160200191906001019061208a565b5b5090506120b3919061210b565b5090565b602060405190810160405280600081525090565b602060405190810160405280600081525090565b81548183558181151161210657818360005260206000209182019101612105919061210b565b5b505050565b61212d91905b80821115612129576000816000905550600101612111565b5090565b905600a165627a7a723058207d18368dc83e1b645160d17178d3a3dcc4569b415c680f68f0ad5f6d0761ab910029",
  "source": "pragma solidity ^0.4.11;\n\nimport \"./BaseRegistry.sol\";\nimport \"../token/PocketToken.sol\";\nimport \"../node/PocketNode.sol\";\n\ncontract PocketRegistry is BaseRegistry {\n\n// Address state\naddress public owner;\naddress public nodeDelegateAddress;\naddress public tokenAddress;\naddress public delegateContract;\naddress[] public previousDelegates;\n\n// Node state\naddress[] public registeredNodes;\nmapping (address => address) public userNode;\n\n\n  event DelegateChanged(address oldAddress, address newAddress);\n\n  function PocketRegistry() {\n    // constructor\n    owner = msg.sender;\n  }\n\n  function changeDelegate(address _newDelegate) returns (bool) {\n    //assert(owner == msg.sender);\n\n    if (_newDelegate != delegateContract) {\n        previousDelegates.push(delegateContract);\n        var oldDelegate = delegateContract;\n        delegateContract = _newDelegate;\n        DelegateChanged(oldDelegate, _newDelegate);\n        return true;\n      }\n    return false;\n\n}\n\n// By registering a Node, you are agreeing to be a relayer in the Pocket Network.\n// Three actions happen - you burn some PKT, register in the registry, and a Node contract gets created and assigned to your address\n// Registry allows network to keep track of current live nodes\n  function registerNode() {\n    require(delegateContract.delegatecall(bytes4(sha3(\"registerNode()\"))));\n  }\n\n  function createNodeContract () {\n    require(delegateContract.delegatecall(bytes4(sha3(\"createNodeContract()\"))));\n  }\n\n  // Get list of nodes that are currently relaying transactions\n  function getLiveNodes() constant returns (address[]) {\n    return registeredNodes;\n  }\n\n  function getCurrentNode () constant returns (address) {\n    return userNode[msg.sender];\n  }\n\n  function setTokenAddress(address _tokenAddress) {\n    require(delegateContract.delegatecall(bytes4(sha3(\"setTokenAddress(address)\")), _tokenAddress));\n  }\n  function setNodeDelegateAddress(address _nodeDelegateAddress) {\n    require(delegateContract.delegatecall(bytes4(sha3(\"setNodeDelegateAddress(address)\")), _nodeDelegateAddress));\n  }\n\n\n}\n",
  "sourcePath": "/Users/mokn/Development/Ethereum/pocket-core/contracts/registry/PocketRegistry.sol",
  "compiler": {
    "name": "solc",
    "version": "0.4.18+commit.9cf6e910.Emscripten.clang"
  },
  "schemaVersion": "1.0.1",
  "updatedAt": "2018-02-05T16:05:50.724Z"
}