{
  "contractName": "PocketRelay",
  "abi": [
    {
      "constant": true,
      "inputs": [],
      "name": "getSenders",
      "outputs": [
        {
          "name": "",
          "type": "address[]"
        }
      ],
      "payable": false,
      "stateMutability": "view",
      "type": "function"
    },
    {
      "constant": false,
      "inputs": [
        {
          "name": "_tokenAddress",
          "type": "address"
        }
      ],
      "name": "setTokenAddress",
      "outputs": [],
      "payable": false,
      "stateMutability": "nonpayable",
      "type": "function"
    },
    {
      "constant": true,
      "inputs": [],
      "name": "nodeAddress",
      "outputs": [
        {
          "name": "",
          "type": "address"
        }
      ],
      "payable": false,
      "stateMutability": "view",
      "type": "function"
    },
    {
      "constant": false,
      "inputs": [],
      "name": "approveTransaction",
      "outputs": [],
      "payable": false,
      "stateMutability": "nonpayable",
      "type": "function"
    },
    {
      "constant": true,
      "inputs": [],
      "name": "approvalCount",
      "outputs": [
        {
          "name": "",
          "type": "uint256"
        }
      ],
      "payable": false,
      "stateMutability": "view",
      "type": "function"
    },
    {
      "constant": true,
      "inputs": [],
      "name": "tokenAddress",
      "outputs": [
        {
          "name": "",
          "type": "address"
        }
      ],
      "payable": false,
      "stateMutability": "view",
      "type": "function"
    },
    {
      "constant": true,
      "inputs": [
        {
          "name": "",
          "type": "uint256"
        }
      ],
      "name": "senderAddresses",
      "outputs": [
        {
          "name": "",
          "type": "address"
        }
      ],
      "payable": false,
      "stateMutability": "view",
      "type": "function"
    },
    {
      "constant": false,
      "inputs": [
        {
          "name": "_nodeAddress",
          "type": "address"
        }
      ],
      "name": "setNodeAddress",
      "outputs": [],
      "payable": false,
      "stateMutability": "nonpayable",
      "type": "function"
    },
    {
      "inputs": [],
      "payable": false,
      "stateMutability": "nonpayable",
      "type": "constructor"
    }
  ],
  "bytecode": "0x6060604052341561000f57600080fd5b6104b78061001e6000396000f30060606040526004361061008e576000357c0100000000000000000000000000000000000000000000000000000000900463ffffffff168063128e04231461009357806326a4e8d2146100fd5780632aa8481f1461013657806333b7a6741461018b5780636884d0a6146101a05780639d76ea58146101c9578063eb00bbd31461021e578063ee292a3014610281575b600080fd5b341561009e57600080fd5b6100a66102ba565b6040518080602001828103825283818151815260200191508051906020019060200280838360005b838110156100e95780820151818401526020810190506100ce565b505050509050019250505060405180910390f35b341561010857600080fd5b610134600480803573ffffffffffffffffffffffffffffffffffffffff1690602001909190505061034e565b005b341561014157600080fd5b610149610391565b604051808273ffffffffffffffffffffffffffffffffffffffff1673ffffffffffffffffffffffffffffffffffffffff16815260200191505060405180910390f35b341561019657600080fd5b61019e6103b7565b005b34156101ab57600080fd5b6101b36103c9565b6040518082815260200191505060405180910390f35b34156101d457600080fd5b6101dc6103cf565b604051808273ffffffffffffffffffffffffffffffffffffffff1673ffffffffffffffffffffffffffffffffffffffff16815260200191505060405180910390f35b341561022957600080fd5b61023f60048080359060200190919050506103f4565b604051808273ffffffffffffffffffffffffffffffffffffffff1673ffffffffffffffffffffffffffffffffffffffff16815260200191505060405180910390f35b341561028c57600080fd5b6102b8600480803573ffffffffffffffffffffffffffffffffffffffff16906020019091905050610433565b005b6102c2610477565b600380548060200260200160405190810160405280929190818152602001828054801561034457602002820191906000526020600020905b8160009054906101000a900473ffffffffffffffffffffffffffffffffffffffff1673ffffffffffffffffffffffffffffffffffffffff16815260200190600101908083116102fa575b5050505050905090565b806000806101000a81548173ffffffffffffffffffffffffffffffffffffffff021916908373ffffffffffffffffffffffffffffffffffffffff16021790555050565b600260009054906101000a900473ffffffffffffffffffffffffffffffffffffffff1681565b60018060008282540192505081905550565b60015481565b6000809054906101000a900473ffffffffffffffffffffffffffffffffffffffff1681565b60038181548110151561040357fe5b90600052602060002090016000915054906101000a900473ffffffffffffffffffffffffffffffffffffffff1681565b80600260006101000a81548173ffffffffffffffffffffffffffffffffffffffff021916908373ffffffffffffffffffffffffffffffffffffffff16021790555050565b6020604051908101604052806000815250905600a165627a7a72305820b28f77dc854e0c59f6c756d91f390489ead8acf75b3186bcdda35aac3f19b50c0029",
  "source": "pragma solidity ^0.4.11;\n\n//import \"../token/PocketToken.sol\";\n/*import \"./PocketMint.sol\";*/\n\ncontract PocketRelay {\n\n  address public tokenAddress;\n  uint256 public approvalCount;\n  address public nodeAddress;\n\n  address[] public senderAddresses;\n\n  function PocketRelay() {\n    // constructor\n\n  }\n\n\n  /*modifier onlyOwner {\n    if (msg.sender != owner) revert();\n    _;\n  }*/\n\n  function approveTransaction() {\n    approvalCount += 1;\n    //if (approvalCount == 3) {\n    //senderAddresses.push(msg.sender);\n      //PocketToken token = PocketToken.at();\n      //nodeAddress.push(token);\n      //senderAddresses.push(token);\n      //token.mint(nodeAddress, 10);\n\n      //tokenAddress.call(bytes4(sha3(\"mint(address,uint256)\")), nodeAddress, 10);\n\n      /*kill();*/\n    //}\n  }\n\n  function setTokenAddress(address _tokenAddress) {\n    tokenAddress = _tokenAddress;\n  }\n\n  function setNodeAddress(address _nodeAddress) {\n    nodeAddress = _nodeAddress;\n  }\n\n  function getSenders() constant returns (address[]) {\n    return senderAddresses;\n  }\n\n/*\n  function kill() onlyOwner() {\n    selfdestruct(owner);\n  }*/\n}\n",
  "sourcePath": "/Users/mokn/Development/Ethereum/pocket-core/contracts/relay/PocketRelay.sol",
  "compiler": {
    "name": "solc",
    "version": "0.4.18+commit.9cf6e910.Emscripten.clang"
  },
  "schemaVersion": "1.0.1",
  "updatedAt": "2018-02-02T23:19:09.367Z"
}