{
  "contractName": "PocketRelay",
  "abi": [
    {
      "constant": true,
      "inputs": [],
      "name": "getSenders",
      "outputs": [
        {
          "name": "",
          "type": "address[]"
        }
      ],
      "payable": false,
      "stateMutability": "view",
      "type": "function"
    },
    {
      "constant": false,
      "inputs": [
        {
          "name": "_token",
          "type": "address"
        }
      ],
      "name": "setToken",
      "outputs": [],
      "payable": false,
      "stateMutability": "nonpayable",
      "type": "function"
    },
    {
      "constant": false,
      "inputs": [
        {
          "name": "_tokenAddress",
          "type": "address"
        }
      ],
      "name": "setTokenAddress",
      "outputs": [],
      "payable": false,
      "stateMutability": "nonpayable",
      "type": "function"
    },
    {
      "constant": true,
      "inputs": [],
      "name": "nodeAddress",
      "outputs": [
        {
          "name": "",
          "type": "address"
        }
      ],
      "payable": false,
      "stateMutability": "view",
      "type": "function"
    },
    {
      "constant": false,
      "inputs": [],
      "name": "approveTransaction",
      "outputs": [],
      "payable": false,
      "stateMutability": "nonpayable",
      "type": "function"
    },
    {
      "constant": true,
      "inputs": [],
      "name": "approvalCount",
      "outputs": [
        {
          "name": "",
          "type": "uint256"
        }
      ],
      "payable": false,
      "stateMutability": "view",
      "type": "function"
    },
    {
      "constant": true,
      "inputs": [],
      "name": "tokenAddress",
      "outputs": [
        {
          "name": "",
          "type": "address"
        }
      ],
      "payable": false,
      "stateMutability": "view",
      "type": "function"
    },
    {
      "constant": true,
      "inputs": [
        {
          "name": "",
          "type": "uint256"
        }
      ],
      "name": "senderAddresses",
      "outputs": [
        {
          "name": "",
          "type": "address"
        }
      ],
      "payable": false,
      "stateMutability": "view",
      "type": "function"
    },
    {
      "constant": false,
      "inputs": [
        {
          "name": "_nodeAddress",
          "type": "address"
        }
      ],
      "name": "setNodeAddress",
      "outputs": [],
      "payable": false,
      "stateMutability": "nonpayable",
      "type": "function"
    },
    {
      "constant": true,
      "inputs": [],
      "name": "token",
      "outputs": [
        {
          "name": "",
          "type": "address"
        }
      ],
      "payable": false,
      "stateMutability": "view",
      "type": "function"
    },
    {
      "inputs": [],
      "payable": false,
      "stateMutability": "nonpayable",
      "type": "constructor"
    }
  ],
  "bytecode": "0x6060604052341561000f57600080fd5b6106d18061001e6000396000f3006060604052600436106100a4576000357c0100000000000000000000000000000000000000000000000000000000900463ffffffff168063128e0423146100a9578063144fa6d71461011357806326a4e8d21461014c5780632aa8481f1461018557806333b7a674146101da5780636884d0a6146101ef5780639d76ea5814610218578063eb00bbd31461026d578063ee292a30146102d0578063fc0c546a14610309575b600080fd5b34156100b457600080fd5b6100bc61035e565b6040518080602001828103825283818151815260200191508051906020019060200280838360005b838110156100ff5780820151818401526020810190506100e4565b505050509050019250505060405180910390f35b341561011e57600080fd5b61014a600480803573ffffffffffffffffffffffffffffffffffffffff169060200190919050506103f2565b005b341561015757600080fd5b610183600480803573ffffffffffffffffffffffffffffffffffffffff16906020019091905050610436565b005b341561019057600080fd5b610198610479565b604051808273ffffffffffffffffffffffffffffffffffffffff1673ffffffffffffffffffffffffffffffffffffffff16815260200191505060405180910390f35b34156101e557600080fd5b6101ed61049f565b005b34156101fa57600080fd5b6102026105bd565b6040518082815260200191505060405180910390f35b341561022357600080fd5b61022b6105c3565b604051808273ffffffffffffffffffffffffffffffffffffffff1673ffffffffffffffffffffffffffffffffffffffff16815260200191505060405180910390f35b341561027857600080fd5b61028e60048080359060200190919050506105e8565b604051808273ffffffffffffffffffffffffffffffffffffffff1673ffffffffffffffffffffffffffffffffffffffff16815260200191505060405180910390f35b34156102db57600080fd5b610307600480803573ffffffffffffffffffffffffffffffffffffffff16906020019091905050610627565b005b341561031457600080fd5b61031c61066b565b604051808273ffffffffffffffffffffffffffffffffffffffff1673ffffffffffffffffffffffffffffffffffffffff16815260200191505060405180910390f35b610366610691565b60048054806020026020016040519081016040528092919081815260200182805480156103e857602002820191906000526020600020905b8160009054906101000a900473ffffffffffffffffffffffffffffffffffffffff1673ffffffffffffffffffffffffffffffffffffffff168152602001906001019080831161039e575b5050505050905090565b80600360006101000a81548173ffffffffffffffffffffffffffffffffffffffff021916908373ffffffffffffffffffffffffffffffffffffffff16021790555050565b806000806101000a81548173ffffffffffffffffffffffffffffffffffffffff021916908373ffffffffffffffffffffffffffffffffffffffff16021790555050565b600260009054906101000a900473ffffffffffffffffffffffffffffffffffffffff1681565b60018060008282540192505081905550600360009054906101000a900473ffffffffffffffffffffffffffffffffffffffff1673ffffffffffffffffffffffffffffffffffffffff166340c10f19600260009054906101000a900473ffffffffffffffffffffffffffffffffffffffff16600a6000604051602001526040518363ffffffff167c0100000000000000000000000000000000000000000000000000000000028152600401808373ffffffffffffffffffffffffffffffffffffffff1673ffffffffffffffffffffffffffffffffffffffff16815260200182815260200192505050602060405180830381600087803b151561059f57600080fd5b6102c65a03f115156105b057600080fd5b5050506040518051905050565b60015481565b6000809054906101000a900473ffffffffffffffffffffffffffffffffffffffff1681565b6004818154811015156105f757fe5b90600052602060002090016000915054906101000a900473ffffffffffffffffffffffffffffffffffffffff1681565b80600260006101000a81548173ffffffffffffffffffffffffffffffffffffffff021916908373ffffffffffffffffffffffffffffffffffffffff16021790555050565b600360009054906101000a900473ffffffffffffffffffffffffffffffffffffffff1681565b6020604051908101604052806000815250905600a165627a7a7230582017e640d87a4735616c8b00dbd513fe42239ca58f7c21da5d5bc370e302d2ec900029",
  "source": "pragma solidity ^0.4.11;\n\nimport \"../token/PocketToken.sol\";\n/*import \"./PocketMint.sol\";*/\n\ncontract PocketRelay {\n\n  address public tokenAddress;\n  uint256 public approvalCount;\n  address public nodeAddress;\n  PocketToken public token;\n\n  address[] public senderAddresses;\n\n  function PocketRelay() {\n    // constructor\n\n  }\n\n\n  /*modifier onlyOwner {\n    if (msg.sender != owner) revert();\n    _;\n  }*/\n\n  function approveTransaction() {\n    approvalCount += 1;\n    //if (approvalCount == 3) {\n    //senderAddresses.push(msg.sender);\n      //PocketToken token = PocketToken.at();\n      //nodeAddress.push(token);\n      //senderAddresses.push(token);\n      token.mint(nodeAddress, 10);\n\n      //tokenAddress.call(bytes4(sha3(\"mint(address,uint256)\")), nodeAddress, 10);\n\n      /*kill();*/\n    //}\n  }\n\n  function setTokenAddress(address _tokenAddress) {\n    tokenAddress = _tokenAddress;\n  }\n\n  function setNodeAddress(address _nodeAddress) {\n    nodeAddress = _nodeAddress;\n  }\n\n  function setToken(address _token) {\n    token = PocketToken(_token);\n  }\n\n\n\n  function getSenders() constant returns (address[]) {\n    return senderAddresses;\n  }\n\n/*\n  function kill() onlyOwner() {\n    selfdestruct(owner);\n  }*/\n}\n",
  "sourcePath": "/Users/mokn/Development/Ethereum/pocket-core/contracts/relay/PocketRelay.sol",
  "compiler": {
    "name": "solc",
    "version": "0.4.18+commit.9cf6e910.Emscripten.clang"
  },
  "schemaVersion": "1.0.1",
  "updatedAt": "2018-02-05T16:21:33.079Z"
}