{
  "contractName": "PocketNodeDelegate",
  "abi": [
    {
      "constant": false,
      "inputs": [
        {
          "name": "_ownerAddress",
          "type": "address"
        }
      ],
      "name": "setOwner",
      "outputs": [],
      "payable": false,
      "stateMutability": "nonpayable",
      "type": "function"
    },
    {
      "constant": true,
      "inputs": [],
      "name": "getRelays",
      "outputs": [
        {
          "name": "",
          "type": "address[]"
        }
      ],
      "payable": false,
      "stateMutability": "view",
      "type": "function"
    },
    {
      "constant": false,
      "inputs": [
        {
          "name": "_tokenAddress",
          "type": "address"
        }
      ],
      "name": "setTokenAddress",
      "outputs": [],
      "payable": false,
      "stateMutability": "nonpayable",
      "type": "function"
    },
    {
      "constant": true,
      "inputs": [],
      "name": "delegateContract",
      "outputs": [
        {
          "name": "",
          "type": "address"
        }
      ],
      "payable": false,
      "stateMutability": "view",
      "type": "function"
    },
    {
      "constant": true,
      "inputs": [],
      "name": "currentEpoch",
      "outputs": [
        {
          "name": "",
          "type": "uint256"
        }
      ],
      "payable": false,
      "stateMutability": "view",
      "type": "function"
    },
    {
      "constant": true,
      "inputs": [],
      "name": "owner",
      "outputs": [
        {
          "name": "",
          "type": "address"
        }
      ],
      "payable": false,
      "stateMutability": "view",
      "type": "function"
    },
    {
      "constant": true,
      "inputs": [],
      "name": "tokenAddress",
      "outputs": [
        {
          "name": "",
          "type": "address"
        }
      ],
      "payable": false,
      "stateMutability": "view",
      "type": "function"
    },
    {
      "constant": true,
      "inputs": [],
      "name": "relayCount",
      "outputs": [
        {
          "name": "",
          "type": "uint256"
        }
      ],
      "payable": false,
      "stateMutability": "view",
      "type": "function"
    },
    {
      "constant": true,
      "inputs": [
        {
          "name": "",
          "type": "uint256"
        }
      ],
      "name": "activeRelays",
      "outputs": [
        {
          "name": "",
          "type": "address"
        }
      ],
      "payable": false,
      "stateMutability": "view",
      "type": "function"
    },
    {
      "constant": true,
      "inputs": [
        {
          "name": "",
          "type": "uint256"
        }
      ],
      "name": "previousDelegates",
      "outputs": [
        {
          "name": "",
          "type": "address"
        }
      ],
      "payable": false,
      "stateMutability": "view",
      "type": "function"
    },
    {
      "constant": false,
      "inputs": [
        {
          "name": "_throttleAddress",
          "type": "address"
        }
      ],
      "name": "checkThrottle",
      "outputs": [],
      "payable": false,
      "stateMutability": "nonpayable",
      "type": "function"
    },
    {
      "inputs": [],
      "payable": false,
      "stateMutability": "nonpayable",
      "type": "constructor"
    }
  ],
  "bytecode": "0x6060604052341561000f57600080fd5b610f038061001e6000396000f3006060604052600436106100af576000357c0100000000000000000000000000000000000000000000000000000000900463ffffffff16806313af4035146100b457806323a93b1e146100ed57806326a4e8d2146101575780633c2b07251461019057806376671808146101e55780638da5cb5b1461020e5780639d76ea5814610263578063e5e22f3b146102b8578063ea6d73fc146102e1578063fbd2dbad14610344578063ff1d4739146103a7575b600080fd5b34156100bf57600080fd5b6100eb600480803573ffffffffffffffffffffffffffffffffffffffff169060200190919050506103e0565b005b34156100f857600080fd5b610100610424565b6040518080602001828103825283818151815260200191508051906020019060200280838360005b83811015610143578082015181840152602081019050610128565b505050509050019250505060405180910390f35b341561016257600080fd5b61018e600480803573ffffffffffffffffffffffffffffffffffffffff169060200190919050506104b8565b005b341561019b57600080fd5b6101a36104fc565b604051808273ffffffffffffffffffffffffffffffffffffffff1673ffffffffffffffffffffffffffffffffffffffff16815260200191505060405180910390f35b34156101f057600080fd5b6101f8610522565b6040518082815260200191505060405180910390f35b341561021957600080fd5b610221610528565b604051808273ffffffffffffffffffffffffffffffffffffffff1673ffffffffffffffffffffffffffffffffffffffff16815260200191505060405180910390f35b341561026e57600080fd5b61027661054e565b604051808273ffffffffffffffffffffffffffffffffffffffff1673ffffffffffffffffffffffffffffffffffffffff16815260200191505060405180910390f35b34156102c357600080fd5b6102cb610574565b6040518082815260200191505060405180910390f35b34156102ec57600080fd5b610302600480803590602001909190505061057a565b604051808273ffffffffffffffffffffffffffffffffffffffff1673ffffffffffffffffffffffffffffffffffffffff16815260200191505060405180910390f35b341561034f57600080fd5b61036560048080359060200190919050506105b9565b604051808273ffffffffffffffffffffffffffffffffffffffff1673ffffffffffffffffffffffffffffffffffffffff16815260200191505060405180910390f35b34156103b257600080fd5b6103de600480803573ffffffffffffffffffffffffffffffffffffffff169060200190919050506105f8565b005b80600160006101000a81548173ffffffffffffffffffffffffffffffffffffffff021916908373ffffffffffffffffffffffffffffffffffffffff16021790555050565b61042c61098d565b60008054806020026020016040519081016040528092919081815260200182805480156104ae57602002820191906000526020600020905b8160009054906101000a900473ffffffffffffffffffffffffffffffffffffffff1673ffffffffffffffffffffffffffffffffffffffff1681526020019060010190808311610464575b5050505050905090565b80600260006101000a81548173ffffffffffffffffffffffffffffffffffffffff021916908373ffffffffffffffffffffffffffffffffffffffff16021790555050565b600360009054906101000a900473ffffffffffffffffffffffffffffffffffffffff1681565b60065481565b600160009054906101000a900473ffffffffffffffffffffffffffffffffffffffff1681565b600260009054906101000a900473ffffffffffffffffffffffffffffffffffffffff1681565b60055481565b60008181548110151561058957fe5b90600052602060002090016000915054906101000a900473ffffffffffffffffffffffffffffffffffffffff1681565b6004818154811015156105c857fe5b90600052602060002090016000915054906101000a900473ffffffffffffffffffffffffffffffffffffffff1681565b60003373ffffffffffffffffffffffffffffffffffffffff16600160009054906101000a900473ffffffffffffffffffffffffffffffffffffffff1673ffffffffffffffffffffffffffffffffffffffff1614151561065357fe5b600260009054906101000a900473ffffffffffffffffffffffffffffffffffffffff169050600115158173ffffffffffffffffffffffffffffffffffffffff166355a0c02d846000604051602001526040518263ffffffff167c0100000000000000000000000000000000000000000000000000000000028152600401808273ffffffffffffffffffffffffffffffffffffffff1673ffffffffffffffffffffffffffffffffffffffff168152602001915050602060405180830381600087803b151561071f57600080fd5b6102c65a03f1151561073057600080fd5b505050604051805190501515141561074b5761074a61074f565b5b5050565b60006107596109a1565b604051809103906000f080151561076f57600080fd5b90508073ffffffffffffffffffffffffffffffffffffffff166326a4e8d2600260009054906101000a900473ffffffffffffffffffffffffffffffffffffffff166040518263ffffffff167c0100000000000000000000000000000000000000000000000000000000028152600401808273ffffffffffffffffffffffffffffffffffffffff1673ffffffffffffffffffffffffffffffffffffffff168152602001915050600060405180830381600087803b151561082d57600080fd5b6102c65a03f1151561083e57600080fd5b5050508073ffffffffffffffffffffffffffffffffffffffff1663ee292a30600160009054906101000a900473ffffffffffffffffffffffffffffffffffffffff166040518263ffffffff167c0100000000000000000000000000000000000000000000000000000000028152600401808273ffffffffffffffffffffffffffffffffffffffff1673ffffffffffffffffffffffffffffffffffffffff168152602001915050600060405180830381600087803b15156108fd57600080fd5b6102c65a03f1151561090e57600080fd5b5050506000805480600101828161092591906109b1565b9160005260206000209001600083909190916101000a81548173ffffffffffffffffffffffffffffffffffffffff021916908373ffffffffffffffffffffffffffffffffffffffff160217905550506001600560008282540192505081905560058190555050565b602060405190810160405280600081525090565b6040516104d580610a0383390190565b8154818355818115116109d8578183600052602060002091820191016109d791906109dd565b5b505050565b6109ff91905b808211156109fb5760008160009055506001016109e3565b5090565b9056006060604052341561000f57600080fd5b6104b78061001e6000396000f30060606040526004361061008e576000357c0100000000000000000000000000000000000000000000000000000000900463ffffffff168063128e04231461009357806326a4e8d2146100fd5780632aa8481f1461013657806333b7a6741461018b5780636884d0a6146101a05780639d76ea58146101c9578063eb00bbd31461021e578063ee292a3014610281575b600080fd5b341561009e57600080fd5b6100a66102ba565b6040518080602001828103825283818151815260200191508051906020019060200280838360005b838110156100e95780820151818401526020810190506100ce565b505050509050019250505060405180910390f35b341561010857600080fd5b610134600480803573ffffffffffffffffffffffffffffffffffffffff1690602001909190505061034e565b005b341561014157600080fd5b610149610391565b604051808273ffffffffffffffffffffffffffffffffffffffff1673ffffffffffffffffffffffffffffffffffffffff16815260200191505060405180910390f35b341561019657600080fd5b61019e6103b7565b005b34156101ab57600080fd5b6101b36103c9565b6040518082815260200191505060405180910390f35b34156101d457600080fd5b6101dc6103cf565b604051808273ffffffffffffffffffffffffffffffffffffffff1673ffffffffffffffffffffffffffffffffffffffff16815260200191505060405180910390f35b341561022957600080fd5b61023f60048080359060200190919050506103f4565b604051808273ffffffffffffffffffffffffffffffffffffffff1673ffffffffffffffffffffffffffffffffffffffff16815260200191505060405180910390f35b341561028c57600080fd5b6102b8600480803573ffffffffffffffffffffffffffffffffffffffff16906020019091905050610433565b005b6102c2610477565b600380548060200260200160405190810160405280929190818152602001828054801561034457602002820191906000526020600020905b8160009054906101000a900473ffffffffffffffffffffffffffffffffffffffff1673ffffffffffffffffffffffffffffffffffffffff16815260200190600101908083116102fa575b5050505050905090565b806000806101000a81548173ffffffffffffffffffffffffffffffffffffffff021916908373ffffffffffffffffffffffffffffffffffffffff16021790555050565b600260009054906101000a900473ffffffffffffffffffffffffffffffffffffffff1681565b60018060008282540192505081905550565b60015481565b6000809054906101000a900473ffffffffffffffffffffffffffffffffffffffff1681565b60038181548110151561040357fe5b90600052602060002090016000915054906101000a900473ffffffffffffffffffffffffffffffffffffffff1681565b80600260006101000a81548173ffffffffffffffffffffffffffffffffffffffff021916908373ffffffffffffffffffffffffffffffffffffffff16021790555050565b6020604051908101604052806000815250905600a165627a7a72305820b28f77dc854e0c59f6c756d91f390489ead8acf75b3186bcdda35aac3f19b50c0029a165627a7a723058206a9691526965796b9c33024e1c148214f9e37d6cee2682a0bf26c2a0818917a50029",
  "source": "pragma solidity ^0.4.11;\n\nimport \"../relay/PocketRelay.sol\";\nimport \"../token/PocketToken.sol\";\n\ncontract PocketNodeDelegate {\n  address[] public activeRelays;\n  address public owner;\n  address public tokenAddress;\n\n  address public delegateContract;\n  address[] public previousDelegates;\n\n  uint256 public relayCount;\n  uint256 public currentEpoch;\n  mapping (uint256 => uint256) epochRelayCount;\n\n  function PocketNodeDelegate() {\n  }\n\n  function checkThrottle(address _throttleAddress) {\n    // if returns true relay transaction\n\n    //TODO: Permissions\n    assert(owner == msg.sender);\n\n    PocketToken token = PocketToken(tokenAddress);\n    if (token.throttle(_throttleAddress) == true) {\n      createRelay();\n    }\n  }\n\n  function createRelay() private {\n    PocketRelay relay = new PocketRelay();\n    relay.setTokenAddress(tokenAddress);\n    relay.setNodeAddress(owner);\n    activeRelays.push(relay);\n    relayCount = relayCount += 1;\n  }\n\n  function getRelays() constant returns (address[]) {\n    return activeRelays;\n  }\n\n  function setOwner(address _ownerAddress) {\n    owner = _ownerAddress;\n  }\n\n  function setTokenAddress(address _tokenAddress) {\n    tokenAddress = _tokenAddress;\n  }\n\n}\n",
  "sourcePath": "/Users/mokn/Development/Ethereum/pocket-core/contracts/node/PocketNodeDelegate.sol",
  "compiler": {
    "name": "solc",
    "version": "0.4.18+commit.9cf6e910.Emscripten.clang"
  },
  "schemaVersion": "1.0.1",
  "updatedAt": "2018-02-02T23:20:04.110Z"
}