{
  "contractName": "PocketNode",
  "abi": [
    {
      "constant": false,
      "inputs": [
        {
          "name": "_ownerAddress",
          "type": "address"
        }
      ],
      "name": "setOwner",
      "outputs": [],
      "payable": false,
      "stateMutability": "nonpayable",
      "type": "function"
    },
    {
      "constant": true,
      "inputs": [],
      "name": "getRelays",
      "outputs": [
        {
          "name": "",
          "type": "address[]"
        }
      ],
      "payable": false,
      "stateMutability": "view",
      "type": "function"
    },
    {
      "constant": false,
      "inputs": [
        {
          "name": "_tokenAddress",
          "type": "address"
        }
      ],
      "name": "setTokenAddress",
      "outputs": [],
      "payable": false,
      "stateMutability": "nonpayable",
      "type": "function"
    },
    {
      "constant": true,
      "inputs": [],
      "name": "delegateContract",
      "outputs": [
        {
          "name": "",
          "type": "address"
        }
      ],
      "payable": false,
      "stateMutability": "view",
      "type": "function"
    },
    {
      "constant": true,
      "inputs": [],
      "name": "owner",
      "outputs": [
        {
          "name": "",
          "type": "address"
        }
      ],
      "payable": false,
      "stateMutability": "view",
      "type": "function"
    },
    {
      "constant": true,
      "inputs": [],
      "name": "tokenAddress",
      "outputs": [
        {
          "name": "",
          "type": "address"
        }
      ],
      "payable": false,
      "stateMutability": "view",
      "type": "function"
    },
    {
      "constant": false,
      "inputs": [
        {
          "name": "_newDelegate",
          "type": "address"
        }
      ],
      "name": "changeDelegate",
      "outputs": [
        {
          "name": "",
          "type": "bool"
        }
      ],
      "payable": false,
      "stateMutability": "nonpayable",
      "type": "function"
    },
    {
      "constant": true,
      "inputs": [
        {
          "name": "",
          "type": "uint256"
        }
      ],
      "name": "activeRelays",
      "outputs": [
        {
          "name": "",
          "type": "address"
        }
      ],
      "payable": false,
      "stateMutability": "view",
      "type": "function"
    },
    {
      "constant": true,
      "inputs": [
        {
          "name": "",
          "type": "uint256"
        }
      ],
      "name": "previousDelegates",
      "outputs": [
        {
          "name": "",
          "type": "address"
        }
      ],
      "payable": false,
      "stateMutability": "view",
      "type": "function"
    },
    {
      "constant": false,
      "inputs": [
        {
          "name": "_throttleAddress",
          "type": "address"
        }
      ],
      "name": "checkThrottle",
      "outputs": [],
      "payable": false,
      "stateMutability": "nonpayable",
      "type": "function"
    },
    {
      "inputs": [],
      "payable": false,
      "stateMutability": "nonpayable",
      "type": "constructor"
    },
    {
      "anonymous": false,
      "inputs": [
        {
          "indexed": false,
          "name": "oldAddress",
          "type": "address"
        },
        {
          "indexed": false,
          "name": "newAddress",
          "type": "address"
        }
      ],
      "name": "DelegateChanged",
      "type": "event"
    }
  ],
  "bytecode": "0x6060604052341561000f57600080fd5b610b1b8061001e6000396000f3006060604052600436106100a4576000357c0100000000000000000000000000000000000000000000000000000000900463ffffffff16806313af4035146100a957806323a93b1e146100e257806326a4e8d21461014c5780633c2b0725146101855780638da5cb5b146101da5780639d76ea581461022f578063e38296e414610284578063ea6d73fc146102d5578063fbd2dbad14610338578063ff1d47391461039b575b600080fd5b34156100b457600080fd5b6100e0600480803573ffffffffffffffffffffffffffffffffffffffff169060200190919050506103d4565b005b34156100ed57600080fd5b6100f56104ea565b6040518080602001828103825283818151815260200191508051906020019060200280838360005b8381101561013857808201518184015260208101905061011d565b505050509050019250505060405180910390f35b341561015757600080fd5b610183600480803573ffffffffffffffffffffffffffffffffffffffff1690602001909190505061057e565b005b341561019057600080fd5b610198610694565b604051808273ffffffffffffffffffffffffffffffffffffffff1673ffffffffffffffffffffffffffffffffffffffff16815260200191505060405180910390f35b34156101e557600080fd5b6101ed6106ba565b604051808273ffffffffffffffffffffffffffffffffffffffff1673ffffffffffffffffffffffffffffffffffffffff16815260200191505060405180910390f35b341561023a57600080fd5b6102426106e0565b604051808273ffffffffffffffffffffffffffffffffffffffff1673ffffffffffffffffffffffffffffffffffffffff16815260200191505060405180910390f35b341561028f57600080fd5b6102bb600480803573ffffffffffffffffffffffffffffffffffffffff16906020019091905050610706565b604051808215151515815260200191505060405180910390f35b34156102e057600080fd5b6102f660048080359060200190919050506108f6565b604051808273ffffffffffffffffffffffffffffffffffffffff1673ffffffffffffffffffffffffffffffffffffffff16815260200191505060405180910390f35b341561034357600080fd5b6103596004808035906020019091905050610935565b604051808273ffffffffffffffffffffffffffffffffffffffff1673ffffffffffffffffffffffffffffffffffffffff16815260200191505060405180910390f35b34156103a657600080fd5b6103d2600480803573ffffffffffffffffffffffffffffffffffffffff16906020019091905050610974565b005b600360009054906101000a900473ffffffffffffffffffffffffffffffffffffffff1673ffffffffffffffffffffffffffffffffffffffff1660405180807f7365744f776e6572286164647265737329000000000000000000000000000000815250601101905060405180910390207c01000000000000000000000000000000000000000000000000000000009004826040518263ffffffff167c0100000000000000000000000000000000000000000000000000000000028152600401808273ffffffffffffffffffffffffffffffffffffffff1673ffffffffffffffffffffffffffffffffffffffff1681526020019150506000604051808303818661646e5a03f49250505015156104e757600080fd5b50565b6104f2610a8a565b600080548060200260200160405190810160405280929190818152602001828054801561057457602002820191906000526020600020905b8160009054906101000a900473ffffffffffffffffffffffffffffffffffffffff1673ffffffffffffffffffffffffffffffffffffffff168152602001906001019080831161052a575b5050505050905090565b600360009054906101000a900473ffffffffffffffffffffffffffffffffffffffff1673ffffffffffffffffffffffffffffffffffffffff1660405180807f736574546f6b656e416464726573732861646472657373290000000000000000815250601801905060405180910390207c01000000000000000000000000000000000000000000000000000000009004826040518263ffffffff167c0100000000000000000000000000000000000000000000000000000000028152600401808273ffffffffffffffffffffffffffffffffffffffff1673ffffffffffffffffffffffffffffffffffffffff1681526020019150506000604051808303818661646e5a03f492505050151561069157600080fd5b50565b600360009054906101000a900473ffffffffffffffffffffffffffffffffffffffff1681565b600160009054906101000a900473ffffffffffffffffffffffffffffffffffffffff1681565b600260009054906101000a900473ffffffffffffffffffffffffffffffffffffffff1681565b600080600360009054906101000a900473ffffffffffffffffffffffffffffffffffffffff1673ffffffffffffffffffffffffffffffffffffffff168373ffffffffffffffffffffffffffffffffffffffff161415156108eb57600480548060010182816107749190610a9e565b91600052602060002090016000600360009054906101000a900473ffffffffffffffffffffffffffffffffffffffff16909190916101000a81548173ffffffffffffffffffffffffffffffffffffffff021916908373ffffffffffffffffffffffffffffffffffffffff16021790555050600360009054906101000a900473ffffffffffffffffffffffffffffffffffffffff16905082600360006101000a81548173ffffffffffffffffffffffffffffffffffffffff021916908373ffffffffffffffffffffffffffffffffffffffff1602179055507fef9fc1dee6010109e6e3b21e51d44028e246dbad8a5a71ea192a30b19e1f457f8184604051808373ffffffffffffffffffffffffffffffffffffffff1673ffffffffffffffffffffffffffffffffffffffff1681526020018273ffffffffffffffffffffffffffffffffffffffff1673ffffffffffffffffffffffffffffffffffffffff1681526020019250505060405180910390a1600191506108f0565b600091505b50919050565b60008181548110151561090557fe5b90600052602060002090016000915054906101000a900473ffffffffffffffffffffffffffffffffffffffff1681565b60048181548110151561094457fe5b90600052602060002090016000915054906101000a900473ffffffffffffffffffffffffffffffffffffffff1681565b600360009054906101000a900473ffffffffffffffffffffffffffffffffffffffff1673ffffffffffffffffffffffffffffffffffffffff1660405180807f636865636b5468726f74746c6528616464726573732900000000000000000000815250601601905060405180910390207c01000000000000000000000000000000000000000000000000000000009004826040518263ffffffff167c0100000000000000000000000000000000000000000000000000000000028152600401808273ffffffffffffffffffffffffffffffffffffffff1673ffffffffffffffffffffffffffffffffffffffff1681526020019150506000604051808303818661646e5a03f4925050501515610a8757600080fd5b50565b602060405190810160405280600081525090565b815481835581811511610ac557818360005260206000209182019101610ac49190610aca565b5b505050565b610aec91905b80821115610ae8576000816000905550600101610ad0565b5090565b905600a165627a7a72305820248d08f2065d1098dd0574267fd245419f539d540f406804b519452f6c763d560029",
  "source": "pragma solidity ^0.4.11;\n\nimport \"../relay/PocketRelay.sol\";\nimport \"../token/PocketToken.sol\";\n\ncontract PocketNode {\n\n  // TODO: (MINT) only the node pays for gas, which means that the profit should be gas cost + infrastructure cost\n\n  address[] public activeRelays;\n  address public owner;\n  address public tokenAddress;\n\n  address public delegateContract;\n  address[] public previousDelegates;\n\n  event DelegateChanged(address oldAddress, address newAddress);\n\n  function PocketNode() {\n  }\n\n  function changeDelegate(address _newDelegate) returns (bool) {\n\n  if (_newDelegate != delegateContract) {\n\n        previousDelegates.push(delegateContract);\n        var oldDelegate = delegateContract;\n        delegateContract = _newDelegate;\n        DelegateChanged(oldDelegate, _newDelegate);\n        return true;\n    }\n    return false;\n\n  }\n\n  // Node contract is the contract that relayers will get assigned when signing up to the registry\n  // checkThrottle checks the staked amount of PKT that application has\n  // If not throttled, a relay contract will be created\n  function checkThrottle(address _throttleAddress) {\n    require(delegateContract.delegatecall(bytes4(sha3(\"checkThrottle(address)\")), _throttleAddress));\n  }\n\n  function getRelays() constant returns (address[]) {\n    return activeRelays;\n  }\n\n  function setOwner(address _ownerAddress) {\n    require(delegateContract.delegatecall(bytes4(sha3(\"setOwner(address)\")), _ownerAddress));\n  }\n\n  function setTokenAddress(address _tokenAddress) {\n    require(delegateContract.delegatecall(bytes4(sha3(\"setTokenAddress(address)\")), _tokenAddress));\n  }\n}\n",
  "sourcePath": "/Users/mokn/Development/Ethereum/pocket-core/contracts/node/PocketNode.sol",
  "compiler": {
    "name": "solc",
    "version": "0.4.18+commit.9cf6e910.Emscripten.clang"
  },
  "schemaVersion": "1.0.1",
  "updatedAt": "2018-02-02T23:19:09.363Z"
}