{
  "contractName": "PocketRegistryDelegate",
  "abi": [
    {
      "constant": true,
      "inputs": [
        {
          "name": "",
          "type": "uint256"
        }
      ],
      "name": "keys",
      "outputs": [
        {
          "name": "",
          "type": "address"
        }
      ],
      "payable": false,
      "stateMutability": "view",
      "type": "function"
    },
    {
      "constant": false,
      "inputs": [],
      "name": "registerNode",
      "outputs": [],
      "payable": false,
      "stateMutability": "nonpayable",
      "type": "function"
    },
    {
      "constant": false,
      "inputs": [
        {
          "name": "_tokenAddress",
          "type": "address"
        }
      ],
      "name": "setTokenAddress",
      "outputs": [],
      "payable": false,
      "stateMutability": "nonpayable",
      "type": "function"
    },
    {
      "constant": false,
      "inputs": [
        {
          "name": "key",
          "type": "address"
        }
      ],
      "name": "unregister",
      "outputs": [],
      "payable": false,
      "stateMutability": "nonpayable",
      "type": "function"
    },
    {
      "constant": false,
      "inputs": [
        {
          "name": "key",
          "type": "address"
        },
        {
          "name": "url",
          "type": "string"
        }
      ],
      "name": "register",
      "outputs": [],
      "payable": false,
      "stateMutability": "nonpayable",
      "type": "function"
    },
    {
      "constant": true,
      "inputs": [],
      "name": "delegateContract",
      "outputs": [
        {
          "name": "",
          "type": "address"
        }
      ],
      "payable": false,
      "stateMutability": "view",
      "type": "function"
    },
    {
      "constant": false,
      "inputs": [],
      "name": "kill",
      "outputs": [],
      "payable": false,
      "stateMutability": "nonpayable",
      "type": "function"
    },
    {
      "constant": false,
      "inputs": [
        {
          "name": "key",
          "type": "address"
        }
      ],
      "name": "getTime",
      "outputs": [
        {
          "name": "",
          "type": "uint256"
        }
      ],
      "payable": false,
      "stateMutability": "nonpayable",
      "type": "function"
    },
    {
      "constant": false,
      "inputs": [
        {
          "name": "key",
          "type": "address"
        }
      ],
      "name": "getRecord",
      "outputs": [
        {
          "name": "owner",
          "type": "address"
        },
        {
          "name": "time",
          "type": "uint256"
        },
        {
          "name": "url",
          "type": "string"
        }
      ],
      "payable": false,
      "stateMutability": "nonpayable",
      "type": "function"
    },
    {
      "constant": true,
      "inputs": [
        {
          "name": "",
          "type": "uint256"
        }
      ],
      "name": "registeredNodes",
      "outputs": [
        {
          "name": "",
          "type": "address"
        }
      ],
      "payable": false,
      "stateMutability": "view",
      "type": "function"
    },
    {
      "constant": true,
      "inputs": [],
      "name": "getLiveNodes",
      "outputs": [
        {
          "name": "",
          "type": "address[]"
        }
      ],
      "payable": false,
      "stateMutability": "view",
      "type": "function"
    },
    {
      "constant": false,
      "inputs": [
        {
          "name": "rindex",
          "type": "uint256"
        }
      ],
      "name": "getRecordAtIndex",
      "outputs": [
        {
          "name": "key",
          "type": "address"
        },
        {
          "name": "owner",
          "type": "address"
        },
        {
          "name": "time",
          "type": "uint256"
        },
        {
          "name": "url",
          "type": "string"
        }
      ],
      "payable": false,
      "stateMutability": "nonpayable",
      "type": "function"
    },
    {
      "constant": false,
      "inputs": [
        {
          "name": "key",
          "type": "address"
        },
        {
          "name": "url",
          "type": "string"
        }
      ],
      "name": "update",
      "outputs": [],
      "payable": false,
      "stateMutability": "nonpayable",
      "type": "function"
    },
    {
      "constant": true,
      "inputs": [],
      "name": "owner",
      "outputs": [
        {
          "name": "",
          "type": "address"
        }
      ],
      "payable": false,
      "stateMutability": "view",
      "type": "function"
    },
    {
      "constant": false,
      "inputs": [
        {
          "name": "_nodeDelegateAddress",
          "type": "address"
        }
      ],
      "name": "setNodeDelegateAddress",
      "outputs": [],
      "payable": false,
      "stateMutability": "nonpayable",
      "type": "function"
    },
    {
      "constant": true,
      "inputs": [],
      "name": "tokenAddress",
      "outputs": [
        {
          "name": "",
          "type": "address"
        }
      ],
      "payable": false,
      "stateMutability": "view",
      "type": "function"
    },
    {
      "constant": true,
      "inputs": [
        {
          "name": "",
          "type": "address"
        }
      ],
      "name": "userNode",
      "outputs": [
        {
          "name": "",
          "type": "address"
        }
      ],
      "payable": false,
      "stateMutability": "view",
      "type": "function"
    },
    {
      "constant": true,
      "inputs": [],
      "name": "numRecords",
      "outputs": [
        {
          "name": "",
          "type": "uint256"
        }
      ],
      "payable": false,
      "stateMutability": "view",
      "type": "function"
    },
    {
      "constant": false,
      "inputs": [
        {
          "name": "key",
          "type": "address"
        },
        {
          "name": "newOwner",
          "type": "address"
        }
      ],
      "name": "transfer",
      "outputs": [],
      "payable": false,
      "stateMutability": "nonpayable",
      "type": "function"
    },
    {
      "constant": false,
      "inputs": [
        {
          "name": "key",
          "type": "address"
        }
      ],
      "name": "isRegistered",
      "outputs": [
        {
          "name": "",
          "type": "bool"
        }
      ],
      "payable": false,
      "stateMutability": "nonpayable",
      "type": "function"
    },
    {
      "constant": true,
      "inputs": [],
      "name": "creationTime",
      "outputs": [
        {
          "name": "",
          "type": "uint256"
        }
      ],
      "payable": false,
      "stateMutability": "view",
      "type": "function"
    },
    {
      "constant": true,
      "inputs": [],
      "name": "nodeDelegateAddress",
      "outputs": [
        {
          "name": "",
          "type": "address"
        }
      ],
      "payable": false,
      "stateMutability": "view",
      "type": "function"
    },
    {
      "constant": false,
      "inputs": [
        {
          "name": "to",
          "type": "address"
        },
        {
          "name": "value",
          "type": "uint256"
        }
      ],
      "name": "withdraw",
      "outputs": [],
      "payable": false,
      "stateMutability": "nonpayable",
      "type": "function"
    },
    {
      "constant": false,
      "inputs": [
        {
          "name": "key",
          "type": "address"
        }
      ],
      "name": "getOwner",
      "outputs": [
        {
          "name": "",
          "type": "address"
        }
      ],
      "payable": false,
      "stateMutability": "nonpayable",
      "type": "function"
    },
    {
      "constant": true,
      "inputs": [
        {
          "name": "",
          "type": "uint256"
        }
      ],
      "name": "previousDelegates",
      "outputs": [
        {
          "name": "",
          "type": "address"
        }
      ],
      "payable": false,
      "stateMutability": "view",
      "type": "function"
    },
    {
      "inputs": [],
      "payable": false,
      "stateMutability": "nonpayable",
      "type": "constructor"
    }
  ],
  "bytecode": "0x6060604052336000806101000a81548173ffffffffffffffffffffffffffffffffffffffff021916908373ffffffffffffffffffffffffffffffffffffffff16021790555042600155341561005357600080fd5b33600560006101000a81548173ffffffffffffffffffffffffffffffffffffffff021916908373ffffffffffffffffffffffffffffffffffffffff160217905550612b89806100a36000396000f300606060405260043610610149576000357c0100000000000000000000000000000000000000000000000000000000900463ffffffff1680630cb6aaf11461014e5780631680b35c146101b157806326a4e8d2146101c65780632ec2c246146101ff57806332434a2e146102385780633c2b0725146102b457806341c0e1b5146103095780634b70cec41461031e578063617fba041461036b57806361ca89fa1461045757806374e0865b146104ba5780637bcd7fad14610524578063838e7c3a1461062d5780638da5cb5b146106a95780639b23b080146106fe5780639d76ea5814610737578063adf340e91461078c578063b5d1990d14610805578063ba45b0b81461082e578063c3c5a54714610886578063d8270dce146108d7578063ec01508b14610900578063f3fef3a314610955578063fa54416114610997578063fbd2dbad14610a10575b600080fd5b341561015957600080fd5b61016f6004808035906020019091905050610a73565b604051808273ffffffffffffffffffffffffffffffffffffffff1673ffffffffffffffffffffffffffffffffffffffff16815260200191505060405180910390f35b34156101bc57600080fd5b6101c4610ab2565b005b34156101d157600080fd5b6101fd600480803573ffffffffffffffffffffffffffffffffffffffff16906020019091905050610c12565b005b341561020a57600080fd5b610236600480803573ffffffffffffffffffffffffffffffffffffffff16906020019091905050610caf565b005b341561024357600080fd5b6102b2600480803573ffffffffffffffffffffffffffffffffffffffff1690602001909190803590602001908201803590602001908080601f01602080910402602001604051908101604052809392919081815260200183838082843782019150505050505091905050610f5f565b005b34156102bf57600080fd5b6102c76111ab565b604051808273ffffffffffffffffffffffffffffffffffffffff1673ffffffffffffffffffffffffffffffffffffffff16815260200191505060405180910390f35b341561031457600080fd5b61031c6111d1565b005b341561032957600080fd5b610355600480803573ffffffffffffffffffffffffffffffffffffffff16906020019091905050611266565b6040518082815260200191505060405180910390f35b341561037657600080fd5b6103a2600480803573ffffffffffffffffffffffffffffffffffffffff169060200190919050506112b2565b604051808473ffffffffffffffffffffffffffffffffffffffff1673ffffffffffffffffffffffffffffffffffffffff16815260200183815260200180602001828103825283818151815260200191508051906020019080838360005b8381101561041a5780820151818401526020810190506103ff565b50505050905090810190601f1680156104475780820380516001836020036101000a031916815260200191505b5094505050505060405180910390f35b341561046257600080fd5b61047860048080359060200190919050506113d5565b604051808273ffffffffffffffffffffffffffffffffffffffff1673ffffffffffffffffffffffffffffffffffffffff16815260200191505060405180910390f35b34156104c557600080fd5b6104cd611414565b6040518080602001828103825283818151815260200191508051906020019060200280838360005b838110156105105780820151818401526020810190506104f5565b505050509050019250505060405180910390f35b341561052f57600080fd5b61054560048080359060200190919050506114a8565b604051808573ffffffffffffffffffffffffffffffffffffffff1673ffffffffffffffffffffffffffffffffffffffff1681526020018473ffffffffffffffffffffffffffffffffffffffff1673ffffffffffffffffffffffffffffffffffffffff16815260200183815260200180602001828103825283818151815260200191508051906020019080838360005b838110156105ef5780820151818401526020810190506105d4565b50505050905090810190601f16801561061c5780820380516001836020036101000a031916815260200191505b509550505050505060405180910390f35b341561063857600080fd5b6106a7600480803573ffffffffffffffffffffffffffffffffffffffff1690602001909190803590602001908201803590602001908080601f01602080910402602001604051908101604052809392919081815260200183838082843782019150505050505091905050611644565b005b34156106b457600080fd5b6106bc611736565b604051808273ffffffffffffffffffffffffffffffffffffffff1673ffffffffffffffffffffffffffffffffffffffff16815260200191505060405180910390f35b341561070957600080fd5b610735600480803573ffffffffffffffffffffffffffffffffffffffff1690602001909190505061175c565b005b341561074257600080fd5b61074a6117f9565b604051808273ffffffffffffffffffffffffffffffffffffffff1673ffffffffffffffffffffffffffffffffffffffff16815260200191505060405180910390f35b341561079757600080fd5b6107c3600480803573ffffffffffffffffffffffffffffffffffffffff1690602001909190505061181f565b604051808273ffffffffffffffffffffffffffffffffffffffff1673ffffffffffffffffffffffffffffffffffffffff16815260200191505060405180910390f35b341561081057600080fd5b610818611852565b6040518082815260200191505060405180910390f35b341561083957600080fd5b610884600480803573ffffffffffffffffffffffffffffffffffffffff1690602001909190803573ffffffffffffffffffffffffffffffffffffffff16906020019091905050611858565b005b341561089157600080fd5b6108bd600480803573ffffffffffffffffffffffffffffffffffffffff1690602001909190505061197d565b604051808215151515815260200191505060405180910390f35b34156108e257600080fd5b6108ea6119cc565b6040518082815260200191505060405180910390f35b341561090b57600080fd5b6109136119d2565b604051808273ffffffffffffffffffffffffffffffffffffffff1673ffffffffffffffffffffffffffffffffffffffff16815260200191505060405180910390f35b341561096057600080fd5b610995600480803573ffffffffffffffffffffffffffffffffffffffff169060200190919080359060200190919050506119f8565b005b34156109a257600080fd5b6109ce600480803573ffffffffffffffffffffffffffffffffffffffff16906020019091905050611a97565b604051808273ffffffffffffffffffffffffffffffffffffffff1673ffffffffffffffffffffffffffffffffffffffff16815260200191505060405180910390f35b3415610a1b57600080fd5b610a316004808035906020019091905050611b03565b604051808273ffffffffffffffffffffffffffffffffffffffff1673ffffffffffffffffffffffffffffffffffffffff16815260200191505060405180910390f35b600481815481101515610a8257fe5b90600052602060002090016000915054906101000a900473ffffffffffffffffffffffffffffffffffffffff1681565b600760009054906101000a900473ffffffffffffffffffffffffffffffffffffffff1673ffffffffffffffffffffffffffffffffffffffff1660405180807f6275726e2875696e743235362c61646472657373290000000000000000000000815250601501905060405180910390207c010000000000000000000000000000000000000000000000000000000090046001336040518363ffffffff167c0100000000000000000000000000000000000000000000000000000000028152600401808360ff1681526020018273ffffffffffffffffffffffffffffffffffffffff1673ffffffffffffffffffffffffffffffffffffffff1681526020019250505060006040518083038160008761646e5a03f19250505050610c08336040805190810160405280600381526020017f55524c0000000000000000000000000000000000000000000000000000000000815250610f5f565b610c10611b42565b565b3373ffffffffffffffffffffffffffffffffffffffff16600560009054906101000a900473ffffffffffffffffffffffffffffffffffffffff1673ffffffffffffffffffffffffffffffffffffffff16141515610c6b57fe5b80600760006101000a81548173ffffffffffffffffffffffffffffffffffffffff021916908373ffffffffffffffffffffffffffffffffffffffff16021790555050565b60003373ffffffffffffffffffffffffffffffffffffffff16600260008473ffffffffffffffffffffffffffffffffffffffff1673ffffffffffffffffffffffffffffffffffffffff16815260200190815260200160002060000160009054906101000a900473ffffffffffffffffffffffffffffffffffffffff1673ffffffffffffffffffffffffffffffffffffffff161415610f5b57600260008373ffffffffffffffffffffffffffffffffffffffff1673ffffffffffffffffffffffffffffffffffffffff168152602001908152602001600020600201549050600260008373ffffffffffffffffffffffffffffffffffffffff1673ffffffffffffffffffffffffffffffffffffffff168152602001908152602001600020600080820160006101000a81549073ffffffffffffffffffffffffffffffffffffffff021916905560018201600090556002820160009055600382016000610e139190611ea7565b5050600360008154809291906001900391905055506004600160048054905003815481101515610e3f57fe5b906000526020600020900160009054906101000a900473ffffffffffffffffffffffffffffffffffffffff16600482815481101515610e7a57fe5b906000526020600020900160006101000a81548173ffffffffffffffffffffffffffffffffffffffff021916908373ffffffffffffffffffffffffffffffffffffffff1602179055508060026000600484815481101515610ed757fe5b906000526020600020900160009054906101000a900473ffffffffffffffffffffffffffffffffffffffff1673ffffffffffffffffffffffffffffffffffffffff1673ffffffffffffffffffffffffffffffffffffffff168152602001908152602001600020600201819055506004805480919060019003610f599190611eef565b505b5050565b6000600260008473ffffffffffffffffffffffffffffffffffffffff1673ffffffffffffffffffffffffffffffffffffffff1681526020019081526020016000206001015414156111a25742600260008473ffffffffffffffffffffffffffffffffffffffff1673ffffffffffffffffffffffffffffffffffffffff1681526020019081526020016000206001018190555033600260008473ffffffffffffffffffffffffffffffffffffffff1673ffffffffffffffffffffffffffffffffffffffff16815260200190815260200160002060000160006101000a81548173ffffffffffffffffffffffffffffffffffffffff021916908373ffffffffffffffffffffffffffffffffffffffff160217905550600480549050600260008473ffffffffffffffffffffffffffffffffffffffff1673ffffffffffffffffffffffffffffffffffffffff16815260200190815260200160002060020181905550600480548091906001016110d29190611eef565b508160046001600480549050038154811015156110eb57fe5b906000526020600020900160006101000a81548173ffffffffffffffffffffffffffffffffffffffff021916908373ffffffffffffffffffffffffffffffffffffffff16021790555080600260008473ffffffffffffffffffffffffffffffffffffffff1673ffffffffffffffffffffffffffffffffffffffff168152602001908152602001600020600301908051906020019061118a929190611f1b565b506003600081548092919060010191905055506111a7565b600080fd5b5050565b600860009054906101000a900473ffffffffffffffffffffffffffffffffffffffff1681565b6000809054906101000a900473ffffffffffffffffffffffffffffffffffffffff1673ffffffffffffffffffffffffffffffffffffffff163373ffffffffffffffffffffffffffffffffffffffff1614151561122c57600080fd5b6000809054906101000a900473ffffffffffffffffffffffffffffffffffffffff1673ffffffffffffffffffffffffffffffffffffffff16ff5b6000600260008373ffffffffffffffffffffffffffffffffffffffff1673ffffffffffffffffffffffffffffffffffffffff168152602001908152602001600020600101549050919050565b6000806112bd611f9b565b6000600260008673ffffffffffffffffffffffffffffffffffffffff1673ffffffffffffffffffffffffffffffffffffffff16815260200190815260200160002090508060000160009054906101000a900473ffffffffffffffffffffffffffffffffffffffff16935080600101549250806003018054600181600116156101000203166002900480601f0160208091040260200160405190810160405280929190818152602001828054600181600116156101000203166002900480156113c65780601f1061139b576101008083540402835291602001916113c6565b820191906000526020600020905b8154815290600101906020018083116113a957829003601f168201915b50505050509150509193909250565b600a818154811015156113e457fe5b90600052602060002090016000915054906101000a900473ffffffffffffffffffffffffffffffffffffffff1681565b61141c611faf565b600a80548060200260200160405190810160405280929190818152602001828054801561149e57602002820191906000526020600020905b8160009054906101000a900473ffffffffffffffffffffffffffffffffffffffff1673ffffffffffffffffffffffffffffffffffffffff1681526020019060010190808311611454575b5050505050905090565b60008060006114b5611f9b565b6000600260006004888154811015156114ca57fe5b906000526020600020900160009054906101000a900473ffffffffffffffffffffffffffffffffffffffff1673ffffffffffffffffffffffffffffffffffffffff1673ffffffffffffffffffffffffffffffffffffffff168152602001908152602001600020905060048681548110151561154157fe5b906000526020600020900160009054906101000a900473ffffffffffffffffffffffffffffffffffffffff1694508060000160009054906101000a900473ffffffffffffffffffffffffffffffffffffffff16935080600101549250806003018054600181600116156101000203166002900480601f0160208091040260200160405190810160405280929190818152602001828054600181600116156101000203166002900480156116355780601f1061160a57610100808354040283529160200191611635565b820191906000526020600020905b81548152906001019060200180831161161857829003601f168201915b50505050509150509193509193565b3373ffffffffffffffffffffffffffffffffffffffff16600260008473ffffffffffffffffffffffffffffffffffffffff1673ffffffffffffffffffffffffffffffffffffffff16815260200190815260200160002060000160009054906101000a900473ffffffffffffffffffffffffffffffffffffffff1673ffffffffffffffffffffffffffffffffffffffff1614156117325780600260008473ffffffffffffffffffffffffffffffffffffffff1673ffffffffffffffffffffffffffffffffffffffff1681526020019081526020016000206003019080519060200190611730929190611f1b565b505b5050565b600560009054906101000a900473ffffffffffffffffffffffffffffffffffffffff1681565b3373ffffffffffffffffffffffffffffffffffffffff16600560009054906101000a900473ffffffffffffffffffffffffffffffffffffffff1673ffffffffffffffffffffffffffffffffffffffff161415156117b557fe5b80600660006101000a81548173ffffffffffffffffffffffffffffffffffffffff021916908373ffffffffffffffffffffffffffffffffffffffff16021790555050565b600760009054906101000a900473ffffffffffffffffffffffffffffffffffffffff1681565b600b6020528060005260406000206000915054906101000a900473ffffffffffffffffffffffffffffffffffffffff1681565b60035481565b3373ffffffffffffffffffffffffffffffffffffffff16600260008473ffffffffffffffffffffffffffffffffffffffff1673ffffffffffffffffffffffffffffffffffffffff16815260200190815260200160002060000160009054906101000a900473ffffffffffffffffffffffffffffffffffffffff1673ffffffffffffffffffffffffffffffffffffffff1614156119745780600260008473ffffffffffffffffffffffffffffffffffffffff1673ffffffffffffffffffffffffffffffffffffffff16815260200190815260200160002060000160006101000a81548173ffffffffffffffffffffffffffffffffffffffff021916908373ffffffffffffffffffffffffffffffffffffffff160217905550611979565b600080fd5b5050565b600080600260008473ffffffffffffffffffffffffffffffffffffffff1673ffffffffffffffffffffffffffffffffffffffff1681526020019081526020016000206001015414159050919050565b60015481565b600660009054906101000a900473ffffffffffffffffffffffffffffffffffffffff1681565b6000809054906101000a900473ffffffffffffffffffffffffffffffffffffffff1673ffffffffffffffffffffffffffffffffffffffff163373ffffffffffffffffffffffffffffffffffffffff16141515611a5357600080fd5b8173ffffffffffffffffffffffffffffffffffffffff166108fc829081150290604051600060405180830381858888f193505050501515611a9357600080fd5b5050565b6000600260008373ffffffffffffffffffffffffffffffffffffffff1673ffffffffffffffffffffffffffffffffffffffff16815260200190815260200160002060000160009054906101000a900473ffffffffffffffffffffffffffffffffffffffff169050919050565b600981815481101515611b1257fe5b90600052602060002090016000915054906101000a900473ffffffffffffffffffffffffffffffffffffffff1681565b6000611b4c611fc3565b604051809103906000f0801515611b6257600080fd5b90508073ffffffffffffffffffffffffffffffffffffffff1663e38296e4600660009054906101000a900473ffffffffffffffffffffffffffffffffffffffff166000604051602001526040518263ffffffff167c0100000000000000000000000000000000000000000000000000000000028152600401808273ffffffffffffffffffffffffffffffffffffffff1673ffffffffffffffffffffffffffffffffffffffff168152602001915050602060405180830381600087803b1515611c2957600080fd5b6102c65a03f11515611c3a57600080fd5b50505060405180519050508073ffffffffffffffffffffffffffffffffffffffff166313af4035336040518263ffffffff167c0100000000000000000000000000000000000000000000000000000000028152600401808273ffffffffffffffffffffffffffffffffffffffff1673ffffffffffffffffffffffffffffffffffffffff168152602001915050600060405180830381600087803b1515611cdf57600080fd5b6102c65a03f11515611cf057600080fd5b5050508073ffffffffffffffffffffffffffffffffffffffff166326a4e8d2600760009054906101000a900473ffffffffffffffffffffffffffffffffffffffff166040518263ffffffff167c0100000000000000000000000000000000000000000000000000000000028152600401808273ffffffffffffffffffffffffffffffffffffffff1673ffffffffffffffffffffffffffffffffffffffff168152602001915050600060405180830381600087803b1515611daf57600080fd5b6102c65a03f11515611dc057600080fd5b50505080600b60003373ffffffffffffffffffffffffffffffffffffffff1673ffffffffffffffffffffffffffffffffffffffff16815260200190815260200160002060006101000a81548173ffffffffffffffffffffffffffffffffffffffff021916908373ffffffffffffffffffffffffffffffffffffffff160217905550600a8054806001018281611e559190611fd3565b9160005260206000209001600083909190916101000a81548173ffffffffffffffffffffffffffffffffffffffff021916908373ffffffffffffffffffffffffffffffffffffffff1602179055505050565b50805460018160011615610100020316600290046000825580601f10611ecd5750611eec565b601f016020900490600052602060002090810190611eeb9190611fff565b5b50565b815481835581811511611f1657818360005260206000209182019101611f159190611fff565b5b505050565b828054600181600116156101000203166002900490600052602060002090601f016020900481019282601f10611f5c57805160ff1916838001178555611f8a565b82800160010185558215611f8a579182015b82811115611f89578251825591602001919060010190611f6e565b5b509050611f979190611fff565b5090565b602060405190810160405280600081525090565b602060405190810160405280600081525090565b604051610b398061202583390190565b815481835581811511611ffa57818360005260206000209182019101611ff99190611fff565b5b505050565b61202191905b8082111561201d576000816000905550600101612005565b5090565b9056006060604052341561000f57600080fd5b610b1b8061001e6000396000f3006060604052600436106100a4576000357c0100000000000000000000000000000000000000000000000000000000900463ffffffff16806313af4035146100a957806323a93b1e146100e257806326a4e8d21461014c5780633c2b0725146101855780638da5cb5b146101da5780639d76ea581461022f578063e38296e414610284578063ea6d73fc146102d5578063fbd2dbad14610338578063ff1d47391461039b575b600080fd5b34156100b457600080fd5b6100e0600480803573ffffffffffffffffffffffffffffffffffffffff169060200190919050506103d4565b005b34156100ed57600080fd5b6100f56104ea565b6040518080602001828103825283818151815260200191508051906020019060200280838360005b8381101561013857808201518184015260208101905061011d565b505050509050019250505060405180910390f35b341561015757600080fd5b610183600480803573ffffffffffffffffffffffffffffffffffffffff1690602001909190505061057e565b005b341561019057600080fd5b610198610694565b604051808273ffffffffffffffffffffffffffffffffffffffff1673ffffffffffffffffffffffffffffffffffffffff16815260200191505060405180910390f35b34156101e557600080fd5b6101ed6106ba565b604051808273ffffffffffffffffffffffffffffffffffffffff1673ffffffffffffffffffffffffffffffffffffffff16815260200191505060405180910390f35b341561023a57600080fd5b6102426106e0565b604051808273ffffffffffffffffffffffffffffffffffffffff1673ffffffffffffffffffffffffffffffffffffffff16815260200191505060405180910390f35b341561028f57600080fd5b6102bb600480803573ffffffffffffffffffffffffffffffffffffffff16906020019091905050610706565b604051808215151515815260200191505060405180910390f35b34156102e057600080fd5b6102f660048080359060200190919050506108f6565b604051808273ffffffffffffffffffffffffffffffffffffffff1673ffffffffffffffffffffffffffffffffffffffff16815260200191505060405180910390f35b341561034357600080fd5b6103596004808035906020019091905050610935565b604051808273ffffffffffffffffffffffffffffffffffffffff1673ffffffffffffffffffffffffffffffffffffffff16815260200191505060405180910390f35b34156103a657600080fd5b6103d2600480803573ffffffffffffffffffffffffffffffffffffffff16906020019091905050610974565b005b600360009054906101000a900473ffffffffffffffffffffffffffffffffffffffff1673ffffffffffffffffffffffffffffffffffffffff1660405180807f7365744f776e6572286164647265737329000000000000000000000000000000815250601101905060405180910390207c01000000000000000000000000000000000000000000000000000000009004826040518263ffffffff167c0100000000000000000000000000000000000000000000000000000000028152600401808273ffffffffffffffffffffffffffffffffffffffff1673ffffffffffffffffffffffffffffffffffffffff1681526020019150506000604051808303818661646e5a03f49250505015156104e757600080fd5b50565b6104f2610a8a565b600080548060200260200160405190810160405280929190818152602001828054801561057457602002820191906000526020600020905b8160009054906101000a900473ffffffffffffffffffffffffffffffffffffffff1673ffffffffffffffffffffffffffffffffffffffff168152602001906001019080831161052a575b5050505050905090565b600360009054906101000a900473ffffffffffffffffffffffffffffffffffffffff1673ffffffffffffffffffffffffffffffffffffffff1660405180807f736574546f6b656e416464726573732861646472657373290000000000000000815250601801905060405180910390207c01000000000000000000000000000000000000000000000000000000009004826040518263ffffffff167c0100000000000000000000000000000000000000000000000000000000028152600401808273ffffffffffffffffffffffffffffffffffffffff1673ffffffffffffffffffffffffffffffffffffffff1681526020019150506000604051808303818661646e5a03f492505050151561069157600080fd5b50565b600360009054906101000a900473ffffffffffffffffffffffffffffffffffffffff1681565b600160009054906101000a900473ffffffffffffffffffffffffffffffffffffffff1681565b600260009054906101000a900473ffffffffffffffffffffffffffffffffffffffff1681565b600080600360009054906101000a900473ffffffffffffffffffffffffffffffffffffffff1673ffffffffffffffffffffffffffffffffffffffff168373ffffffffffffffffffffffffffffffffffffffff161415156108eb57600480548060010182816107749190610a9e565b91600052602060002090016000600360009054906101000a900473ffffffffffffffffffffffffffffffffffffffff16909190916101000a81548173ffffffffffffffffffffffffffffffffffffffff021916908373ffffffffffffffffffffffffffffffffffffffff16021790555050600360009054906101000a900473ffffffffffffffffffffffffffffffffffffffff16905082600360006101000a81548173ffffffffffffffffffffffffffffffffffffffff021916908373ffffffffffffffffffffffffffffffffffffffff1602179055507fef9fc1dee6010109e6e3b21e51d44028e246dbad8a5a71ea192a30b19e1f457f8184604051808373ffffffffffffffffffffffffffffffffffffffff1673ffffffffffffffffffffffffffffffffffffffff1681526020018273ffffffffffffffffffffffffffffffffffffffff1673ffffffffffffffffffffffffffffffffffffffff1681526020019250505060405180910390a1600191506108f0565b600091505b50919050565b60008181548110151561090557fe5b90600052602060002090016000915054906101000a900473ffffffffffffffffffffffffffffffffffffffff1681565b60048181548110151561094457fe5b90600052602060002090016000915054906101000a900473ffffffffffffffffffffffffffffffffffffffff1681565b600360009054906101000a900473ffffffffffffffffffffffffffffffffffffffff1673ffffffffffffffffffffffffffffffffffffffff1660405180807f636865636b5468726f74746c6528616464726573732900000000000000000000815250601601905060405180910390207c01000000000000000000000000000000000000000000000000000000009004826040518263ffffffff167c0100000000000000000000000000000000000000000000000000000000028152600401808273ffffffffffffffffffffffffffffffffffffffff1673ffffffffffffffffffffffffffffffffffffffff1681526020019150506000604051808303818661646e5a03f4925050501515610a8757600080fd5b50565b602060405190810160405280600081525090565b815481835581811511610ac557818360005260206000209182019101610ac49190610aca565b5b505050565b610aec91905b80821115610ae8576000816000905550600101610ad0565b5090565b905600a165627a7a72305820248d08f2065d1098dd0574267fd245419f539d540f406804b519452f6c763d560029a165627a7a723058207032f72cae9f04d30e1fc1b51321a8475a1ddcda1ac9e8d733afb227426bb0c20029",
  "source": "pragma solidity ^0.4.11;\n\nimport \"./BaseRegistry.sol\";\nimport \"../token/PocketToken.sol\";\nimport \"../node/PocketNode.sol\";\n\ncontract PocketRegistryDelegate is BaseRegistry {\n\n  // Address state\n  address public owner;\n  address public nodeDelegateAddress;\n  address public tokenAddress;\n  address public delegateContract;\n  address[] public previousDelegates;\n\n  // Node state\n  address[] public registeredNodes;\n  mapping (address => address) public userNode;\n\n  function PocketRegistryDelegate() {\n    owner = msg.sender;\n  }\n\n  function registerNode() {\n\n    // TODO: Permissions\n    // TODO: Check if address for relay already exists\n    // TODO: Dynamic burn amount\n    // TODO: Check if address is already registered\n    tokenAddress.call(bytes4(sha3(\"burn(uint256,address)\")),1,msg.sender);\n    // TODO: instead of using a URL, we need to fetch the node metadata from the node contract\n    register(msg.sender, \"URL\");\n\n    // TODO: Return the newly created Node\n    // Cannot return values due to delegatecall limitations. See https://ethereum.stackexchange.com/questions/8099/delegatecall-and-function-return-values\n    createNodeContract();\n  }\n\n  function createNodeContract () private {\n\n    PocketNode newNode = new PocketNode();\n    // TODO: nodeDelegateAddress should only get set once per upgrade\n    newNode.changeDelegate(nodeDelegateAddress);\n    newNode.setOwner(msg.sender);\n    newNode.setTokenAddress(tokenAddress);\n    userNode[msg.sender] = newNode;\n    registeredNodes.push(newNode);\n  }\n\n  function getLiveNodes() constant returns (address[]) {\n    return registeredNodes;\n  }\n\n\n  function setTokenAddress(address _tokenAddress) {\n    assert(owner == msg.sender);\n    tokenAddress = _tokenAddress;\n  }\n\n  function setNodeDelegateAddress(address _nodeDelegateAddress) {\n    assert(owner == msg.sender);\n    nodeDelegateAddress = _nodeDelegateAddress;\n  }\n\n}\n",
  "sourcePath": "/Users/mokn/Development/Ethereum/pocket-core/contracts/registry/PocketRegistryDelegate.sol",
  "compiler": {
    "name": "solc",
    "version": "0.4.18+commit.9cf6e910.Emscripten.clang"
  },
  "schemaVersion": "1.0.1",
  "updatedAt": "2018-02-05T16:05:50.735Z"
}