{
  "contractName": "StakableToken",
  "abi": [
    {
      "constant": false,
      "inputs": [
        {
          "name": "_spender",
          "type": "address"
        },
        {
          "name": "_value",
          "type": "uint256"
        }
      ],
      "name": "approve",
      "outputs": [
        {
          "name": "",
          "type": "bool"
        }
      ],
      "payable": false,
      "stateMutability": "nonpayable",
      "type": "function"
    },
    {
      "constant": true,
      "inputs": [],
      "name": "totalSupply",
      "outputs": [
        {
          "name": "",
          "type": "uint256"
        }
      ],
      "payable": false,
      "stateMutability": "view",
      "type": "function"
    },
    {
      "constant": true,
      "inputs": [],
      "name": "throttleResetBlock",
      "outputs": [
        {
          "name": "",
          "type": "uint256"
        }
      ],
      "payable": false,
      "stateMutability": "view",
      "type": "function"
    },
    {
      "constant": false,
      "inputs": [
        {
          "name": "_from",
          "type": "address"
        },
        {
          "name": "_to",
          "type": "address"
        },
        {
          "name": "_value",
          "type": "uint256"
        }
      ],
      "name": "transferFrom",
      "outputs": [
        {
          "name": "",
          "type": "bool"
        }
      ],
      "payable": false,
      "stateMutability": "nonpayable",
      "type": "function"
    },
    {
      "constant": true,
      "inputs": [],
      "name": "throttleEpoch",
      "outputs": [
        {
          "name": "",
          "type": "uint256"
        }
      ],
      "payable": false,
      "stateMutability": "view",
      "type": "function"
    },
    {
      "constant": false,
      "inputs": [
        {
          "name": "_value",
          "type": "uint256"
        }
      ],
      "name": "releaseStake",
      "outputs": [
        {
          "name": "success",
          "type": "bool"
        }
      ],
      "payable": false,
      "stateMutability": "nonpayable",
      "type": "function"
    },
    {
      "constant": false,
      "inputs": [
        {
          "name": "_stakerAddress",
          "type": "address"
        }
      ],
      "name": "throttle",
      "outputs": [
        {
          "name": "success",
          "type": "bool"
        }
      ],
      "payable": false,
      "stateMutability": "nonpayable",
      "type": "function"
    },
    {
      "constant": false,
      "inputs": [
        {
          "name": "_spender",
          "type": "address"
        },
        {
          "name": "_subtractedValue",
          "type": "uint256"
        }
      ],
      "name": "decreaseApproval",
      "outputs": [
        {
          "name": "success",
          "type": "bool"
        }
      ],
      "payable": false,
      "stateMutability": "nonpayable",
      "type": "function"
    },
    {
      "constant": true,
      "inputs": [
        {
          "name": "",
          "type": "address"
        }
      ],
      "name": "epochTransactionCount",
      "outputs": [
        {
          "name": "",
          "type": "uint256"
        }
      ],
      "payable": false,
      "stateMutability": "view",
      "type": "function"
    },
    {
      "constant": true,
      "inputs": [
        {
          "name": "_owner",
          "type": "address"
        }
      ],
      "name": "balanceOf",
      "outputs": [
        {
          "name": "balance",
          "type": "uint256"
        }
      ],
      "payable": false,
      "stateMutability": "view",
      "type": "function"
    },
    {
      "constant": true,
      "inputs": [],
      "name": "getThrottleResetBlock",
      "outputs": [
        {
          "name": "",
          "type": "uint256"
        }
      ],
      "payable": false,
      "stateMutability": "view",
      "type": "function"
    },
    {
      "constant": false,
      "inputs": [
        {
          "name": "_stakerAddress",
          "type": "address"
        }
      ],
      "name": "resetThrottleEpoch",
      "outputs": [],
      "payable": false,
      "stateMutability": "nonpayable",
      "type": "function"
    },
    {
      "constant": false,
      "inputs": [
        {
          "name": "_value",
          "type": "uint256"
        }
      ],
      "name": "stake",
      "outputs": [
        {
          "name": "success",
          "type": "bool"
        }
      ],
      "payable": false,
      "stateMutability": "nonpayable",
      "type": "function"
    },
    {
      "constant": false,
      "inputs": [
        {
          "name": "_to",
          "type": "address"
        },
        {
          "name": "_value",
          "type": "uint256"
        }
      ],
      "name": "transfer",
      "outputs": [
        {
          "name": "",
          "type": "bool"
        }
      ],
      "payable": false,
      "stateMutability": "nonpayable",
      "type": "function"
    },
    {
      "constant": true,
      "inputs": [],
      "name": "getThrottleEpoch",
      "outputs": [
        {
          "name": "",
          "type": "uint256"
        }
      ],
      "payable": false,
      "stateMutability": "view",
      "type": "function"
    },
    {
      "constant": true,
      "inputs": [],
      "name": "getThrottleStartBlock",
      "outputs": [
        {
          "name": "",
          "type": "uint256"
        }
      ],
      "payable": false,
      "stateMutability": "view",
      "type": "function"
    },
    {
      "constant": false,
      "inputs": [
        {
          "name": "_spender",
          "type": "address"
        },
        {
          "name": "_addedValue",
          "type": "uint256"
        }
      ],
      "name": "increaseApproval",
      "outputs": [
        {
          "name": "success",
          "type": "bool"
        }
      ],
      "payable": false,
      "stateMutability": "nonpayable",
      "type": "function"
    },
    {
      "constant": true,
      "inputs": [
        {
          "name": "_owner",
          "type": "address"
        },
        {
          "name": "_spender",
          "type": "address"
        }
      ],
      "name": "allowance",
      "outputs": [
        {
          "name": "remaining",
          "type": "uint256"
        }
      ],
      "payable": false,
      "stateMutability": "view",
      "type": "function"
    },
    {
      "constant": true,
      "inputs": [],
      "name": "throttleStartBlock",
      "outputs": [
        {
          "name": "",
          "type": "uint256"
        }
      ],
      "payable": false,
      "stateMutability": "view",
      "type": "function"
    },
    {
      "constant": true,
      "inputs": [
        {
          "name": "",
          "type": "address"
        }
      ],
      "name": "stakedAmount",
      "outputs": [
        {
          "name": "",
          "type": "uint256"
        }
      ],
      "payable": false,
      "stateMutability": "view",
      "type": "function"
    },
    {
      "inputs": [],
      "payable": false,
      "stateMutability": "nonpayable",
      "type": "constructor"
    },
    {
      "anonymous": false,
      "inputs": [
        {
          "indexed": true,
          "name": "_from",
          "type": "address"
        },
        {
          "indexed": false,
          "name": "_value",
          "type": "uint256"
        }
      ],
      "name": "Staked",
      "type": "event"
    },
    {
      "anonymous": false,
      "inputs": [
        {
          "indexed": true,
          "name": "_from",
          "type": "address"
        },
        {
          "indexed": false,
          "name": "_value",
          "type": "uint256"
        }
      ],
      "name": "StakeReleased",
      "type": "event"
    },
    {
      "anonymous": false,
      "inputs": [
        {
          "indexed": true,
          "name": "owner",
          "type": "address"
        },
        {
          "indexed": true,
          "name": "spender",
          "type": "address"
        },
        {
          "indexed": false,
          "name": "value",
          "type": "uint256"
        }
      ],
      "name": "Approval",
      "type": "event"
    },
    {
      "anonymous": false,
      "inputs": [
        {
          "indexed": true,
          "name": "from",
          "type": "address"
        },
        {
          "indexed": true,
          "name": "to",
          "type": "address"
        },
        {
          "indexed": false,
          "name": "value",
          "type": "uint256"
        }
      ],
      "name": "Transfer",
      "type": "event"
    }
  ],
  "bytecode": "0x6060604052341561000f57600080fd5b6116038061001e6000396000f300606060405260043610610112576000357c0100000000000000000000000000000000000000000000000000000000900463ffffffff168063095ea7b31461011757806318160ddd146101715780631f46767f1461019a57806323b872dd146101c3578063350f8d481461023c57806345f544851461026557806355a0c02d146102a057806366188463146102f15780636e78065f1461034b57806370a082311461039857806387d1f6af146103e55780639e0e703d1461040e578063a694fc3a14610447578063a9059cbb14610482578063cdb07b83146104dc578063ceb1f0ab14610505578063d73dd6231461052e578063dd62ed3e14610588578063e1f35ca9146105f4578063f99318551461061d575b600080fd5b341561012257600080fd5b610157600480803573ffffffffffffffffffffffffffffffffffffffff1690602001909190803590602001909190505061066a565b604051808215151515815260200191505060405180910390f35b341561017c57600080fd5b61018461075c565b6040518082815260200191505060405180910390f35b34156101a557600080fd5b6101ad610762565b6040518082815260200191505060405180910390f35b34156101ce57600080fd5b610222600480803573ffffffffffffffffffffffffffffffffffffffff1690602001909190803573ffffffffffffffffffffffffffffffffffffffff16906020019091908035906020019091905050610768565b604051808215151515815260200191505060405180910390f35b341561024757600080fd5b61024f610a54565b6040518082815260200191505060405180910390f35b341561027057600080fd5b6102866004808035906020019091905050610a5a565b604051808215151515815260200191505060405180910390f35b34156102ab57600080fd5b6102d7600480803573ffffffffffffffffffffffffffffffffffffffff16906020019091905050610b4d565b604051808215151515815260200191505060405180910390f35b34156102fc57600080fd5b610331600480803573ffffffffffffffffffffffffffffffffffffffff16906020019091908035906020019091905050610cac565b604051808215151515815260200191505060405180910390f35b341561035657600080fd5b610382600480803573ffffffffffffffffffffffffffffffffffffffff16906020019091905050610f3d565b6040518082815260200191505060405180910390f35b34156103a357600080fd5b6103cf600480803573ffffffffffffffffffffffffffffffffffffffff16906020019091905050610f55565b6040518082815260200191505060405180910390f35b34156103f057600080fd5b6103f8610f9e565b6040518082815260200191505060405180910390f35b341561041957600080fd5b610445600480803573ffffffffffffffffffffffffffffffffffffffff16906020019091905050610fa8565b005b341561045257600080fd5b6104686004808035906020019091905050611014565b604051808215151515815260200191505060405180910390f35b341561048d57600080fd5b6104c2600480803573ffffffffffffffffffffffffffffffffffffffff16906020019091908035906020019091905050611115565b604051808215151515815260200191505060405180910390f35b34156104e757600080fd5b6104ef6112eb565b6040518082815260200191505060405180910390f35b341561051057600080fd5b6105186112f5565b6040518082815260200191505060405180910390f35b341561053957600080fd5b61056e600480803573ffffffffffffffffffffffffffffffffffffffff169060200190919080359060200190919050506112ff565b604051808215151515815260200191505060405180910390f35b341561059357600080fd5b6105de600480803573ffffffffffffffffffffffffffffffffffffffff1690602001909190803573ffffffffffffffffffffffffffffffffffffffff169060200190919050506114fb565b6040518082815260200191505060405180910390f35b34156105ff57600080fd5b610607611582565b6040518082815260200191505060405180910390f35b341561062857600080fd5b610654600480803573ffffffffffffffffffffffffffffffffffffffff16906020019091905050611588565b6040518082815260200191505060405180910390f35b600081600260003373ffffffffffffffffffffffffffffffffffffffff1673ffffffffffffffffffffffffffffffffffffffff16815260200190815260200160002060008573ffffffffffffffffffffffffffffffffffffffff1673ffffffffffffffffffffffffffffffffffffffff168152602001908152602001600020819055508273ffffffffffffffffffffffffffffffffffffffff163373ffffffffffffffffffffffffffffffffffffffff167f8c5be1e5ebec7d5bd14f71427d1e84f3dd0314c0f7b2291e5b200ac8c7c3b925846040518082815260200191505060405180910390a36001905092915050565b60005481565b60065481565b600080600073ffffffffffffffffffffffffffffffffffffffff168473ffffffffffffffffffffffffffffffffffffffff16141515156107a757600080fd5b600260008673ffffffffffffffffffffffffffffffffffffffff1673ffffffffffffffffffffffffffffffffffffffff16815260200190815260200160002060003373ffffffffffffffffffffffffffffffffffffffff1673ffffffffffffffffffffffffffffffffffffffff16815260200190815260200160002054905061087883600160008873ffffffffffffffffffffffffffffffffffffffff1673ffffffffffffffffffffffffffffffffffffffff168152602001908152602001600020546115a090919063ffffffff16565b600160008773ffffffffffffffffffffffffffffffffffffffff1673ffffffffffffffffffffffffffffffffffffffff1681526020019081526020016000208190555061090d83600160008773ffffffffffffffffffffffffffffffffffffffff1673ffffffffffffffffffffffffffffffffffffffff168152602001908152602001600020546115b990919063ffffffff16565b600160008673ffffffffffffffffffffffffffffffffffffffff1673ffffffffffffffffffffffffffffffffffffffff1681526020019081526020016000208190555061096383826115a090919063ffffffff16565b600260008773ffffffffffffffffffffffffffffffffffffffff1673ffffffffffffffffffffffffffffffffffffffff16815260200190815260200160002060003373ffffffffffffffffffffffffffffffffffffffff1673ffffffffffffffffffffffffffffffffffffffff168152602001908152602001600020819055508373ffffffffffffffffffffffffffffffffffffffff168573ffffffffffffffffffffffffffffffffffffffff167fddf252ad1be2c89b69c2b068fc378daa952ba7f163c4a11628f55a4df523b3ef856040518082815260200191505060405180910390a360019150509392505050565b60075481565b600081600360003373ffffffffffffffffffffffffffffffffffffffff1673ffffffffffffffffffffffffffffffffffffffff1681526020019081526020016000206000828254039250508190555081600160003373ffffffffffffffffffffffffffffffffffffffff1673ffffffffffffffffffffffffffffffffffffffff168152602001908152602001600020600082825401925050819055503373ffffffffffffffffffffffffffffffffffffffff167fb1c90ce88682afb6fb54564abd065e17c4728f8cb472ff17ef458143f3f77971836040518082815260200191505060405180910390a260019050919050565b6000806000806000600360008773ffffffffffffffffffffffffffffffffffffffff1673ffffffffffffffffffffffffffffffffffffffff16815260200190815260200160002054111515610ba157600080fd5b60065443101515610bb657610bb585610fa8565b5b600460008673ffffffffffffffffffffffffffffffffffffffff1673ffffffffffffffffffffffffffffffffffffffff168152602001908152602001600020549250600360008673ffffffffffffffffffffffffffffffffffffffff1673ffffffffffffffffffffffffffffffffffffffff16815260200190815260200160002054915060028202905080831115610c515760009350610ca4565b6001600460008773ffffffffffffffffffffffffffffffffffffffff1673ffffffffffffffffffffffffffffffffffffffff16815260200190815260200160002060008282540192505081905550600193505b505050919050565b600080600260003373ffffffffffffffffffffffffffffffffffffffff1673ffffffffffffffffffffffffffffffffffffffff16815260200190815260200160002060008573ffffffffffffffffffffffffffffffffffffffff1673ffffffffffffffffffffffffffffffffffffffff16815260200190815260200160002054905080831115610dbd576000600260003373ffffffffffffffffffffffffffffffffffffffff1673ffffffffffffffffffffffffffffffffffffffff16815260200190815260200160002060008673ffffffffffffffffffffffffffffffffffffffff1673ffffffffffffffffffffffffffffffffffffffff16815260200190815260200160002081905550610e51565b610dd083826115a090919063ffffffff16565b600260003373ffffffffffffffffffffffffffffffffffffffff1673ffffffffffffffffffffffffffffffffffffffff16815260200190815260200160002060008673ffffffffffffffffffffffffffffffffffffffff1673ffffffffffffffffffffffffffffffffffffffff168152602001908152602001600020819055505b8373ffffffffffffffffffffffffffffffffffffffff163373ffffffffffffffffffffffffffffffffffffffff167f8c5be1e5ebec7d5bd14f71427d1e84f3dd0314c0f7b2291e5b200ac8c7c3b925600260003373ffffffffffffffffffffffffffffffffffffffff1673ffffffffffffffffffffffffffffffffffffffff16815260200190815260200160002060008873ffffffffffffffffffffffffffffffffffffffff1673ffffffffffffffffffffffffffffffffffffffff168152602001908152602001600020546040518082815260200191505060405180910390a3600191505092915050565b60046020528060005260406000206000915090505481565b6000600160008373ffffffffffffffffffffffffffffffffffffffff1673ffffffffffffffffffffffffffffffffffffffff168152602001908152602001600020549050919050565b6000600654905090565b6000439050600a810190508060068190555060016007600082825401925050819055506000600460008473ffffffffffffffffffffffffffffffffffffffff1673ffffffffffffffffffffffffffffffffffffffff168152602001908152602001600020819055505050565b6000808211151561102457600080fd5b81600160003373ffffffffffffffffffffffffffffffffffffffff1673ffffffffffffffffffffffffffffffffffffffff1681526020019081526020016000206000828254039250508190555081600360003373ffffffffffffffffffffffffffffffffffffffff1673ffffffffffffffffffffffffffffffffffffffff168152602001908152602001600020600082825401925050819055503373ffffffffffffffffffffffffffffffffffffffff167f9e71bc8eea02a63969f509818f2dafb9254532904319f9dbda79b67bd34a5f3d836040518082815260200191505060405180910390a260019050919050565b60008073ffffffffffffffffffffffffffffffffffffffff168373ffffffffffffffffffffffffffffffffffffffff161415151561115257600080fd5b6111a482600160003373ffffffffffffffffffffffffffffffffffffffff1673ffffffffffffffffffffffffffffffffffffffff168152602001908152602001600020546115a090919063ffffffff16565b600160003373ffffffffffffffffffffffffffffffffffffffff1673ffffffffffffffffffffffffffffffffffffffff1681526020019081526020016000208190555061123982600160008673ffffffffffffffffffffffffffffffffffffffff1673ffffffffffffffffffffffffffffffffffffffff168152602001908152602001600020546115b990919063ffffffff16565b600160008573ffffffffffffffffffffffffffffffffffffffff1673ffffffffffffffffffffffffffffffffffffffff168152602001908152602001600020819055508273ffffffffffffffffffffffffffffffffffffffff163373ffffffffffffffffffffffffffffffffffffffff167fddf252ad1be2c89b69c2b068fc378daa952ba7f163c4a11628f55a4df523b3ef846040518082815260200191505060405180910390a36001905092915050565b6000600754905090565b6000600554905090565b600061139082600260003373ffffffffffffffffffffffffffffffffffffffff1673ffffffffffffffffffffffffffffffffffffffff16815260200190815260200160002060008673ffffffffffffffffffffffffffffffffffffffff1673ffffffffffffffffffffffffffffffffffffffff168152602001908152602001600020546115b990919063ffffffff16565b600260003373ffffffffffffffffffffffffffffffffffffffff1673ffffffffffffffffffffffffffffffffffffffff16815260200190815260200160002060008573ffffffffffffffffffffffffffffffffffffffff1673ffffffffffffffffffffffffffffffffffffffff168152602001908152602001600020819055508273ffffffffffffffffffffffffffffffffffffffff163373ffffffffffffffffffffffffffffffffffffffff167f8c5be1e5ebec7d5bd14f71427d1e84f3dd0314c0f7b2291e5b200ac8c7c3b925600260003373ffffffffffffffffffffffffffffffffffffffff1673ffffffffffffffffffffffffffffffffffffffff16815260200190815260200160002060008773ffffffffffffffffffffffffffffffffffffffff1673ffffffffffffffffffffffffffffffffffffffff168152602001908152602001600020546040518082815260200191505060405180910390a36001905092915050565b6000600260008473ffffffffffffffffffffffffffffffffffffffff1673ffffffffffffffffffffffffffffffffffffffff16815260200190815260200160002060008373ffffffffffffffffffffffffffffffffffffffff1673ffffffffffffffffffffffffffffffffffffffff16815260200190815260200160002054905092915050565b60055481565b60036020528060005260406000206000915090505481565b60008282111515156115ae57fe5b818303905092915050565b60008082840190508381101515156115cd57fe5b80915050929150505600a165627a7a7230582092685c638a5b9347e26421977be28afb1fa43195426452ab45ac1912056975fe0029",
  "source": "pragma solidity ^0.4.11;\n\nimport \"installed_contracts/zeppelin/contracts/token/StandardToken.sol\";\n\ncontract StakableToken is StandardToken {\n\n  // Mapping of address staking => staked amount\n  mapping (address => uint256) public stakedAmount;\n  // Mapping of address staking => count of transactions in current throttle epoch\n  mapping (address => uint256) public epochTransactionCount;\n\n  // Throttle epoch state: epochTransactionCount gets reset after end of each epoch\n  uint public throttleStartBlock;\n  uint public throttleResetBlock;\n  uint public throttleEpoch;\n\n  event Staked(address indexed _from, uint256 _value);\n  event StakeReleased(address indexed _from, uint256 _value);\n\n  function StakableToken() {\n  }\n\n  /*\n  * Core staking functions\n  */\n\n  // Cannot throttle without first staking PKT\n  function stake(uint256 _value) returns (bool success) {\n    // TODO: Permissions\n    require(_value > 0);\n    // TODO: Timelock stake\n\n    balances[msg.sender] -= _value;\n    stakedAmount[msg.sender] += _value;\n    Staked(msg.sender, _value);\n    return true;\n  }\n\n  function releaseStake(uint256 _value) returns (bool success) {\n    // TODO: Permissions\n    // TODO: Timelock stake\n    stakedAmount[msg.sender] -= _value;\n    balances[msg.sender] += _value;\n    StakeReleased(msg.sender, _value);\n    return true;\n  }\n\n\n  /*\n  * Core throttling functions\n  */\n\n  function throttle(address _stakerAddress) returns (bool success) {\n\n    // TODO: Permissions\n    //Must stake at least 1 PKT\n    require(stakedAmount[_stakerAddress] > 0);\n    // check if current throttle epoch needs to be reset\n    if (block.number >= throttleResetBlock) {\n      resetThrottleEpoch(_stakerAddress);\n    }\n\n    // Get current epoch state of staker\n    uint256 currentEpochTransactionCount = epochTransactionCount[_stakerAddress];\n    uint256 currentStakedAmount = stakedAmount[_stakerAddress];\n\n    // Coefficient is how many transactions per throttle epoch are allowed\n    // TODO: dynamic coefficient calculation\n    // Use velocity and supply to determine this coefficient\n    uint256 throttleCoefficient = currentStakedAmount * 2;\n\n    // Luis: Save gas, just save the coefficient once and reset it when the throttle resets\n    if (currentEpochTransactionCount > throttleCoefficient) {\n      //resetThrottleEpoch(_stakerAddress);\n      return false;\n    } else {\n      epochTransactionCount[_stakerAddress] += 1;\n      return true;\n    }\n\n  }\n\n  function resetThrottleEpoch(address _stakerAddress) {\n    // TODO: Permissions\n    uint blockNumber = block.number;\n\n    // TODO: calculate reset dynamically\n    throttleResetBlock = blockNumber += 10;\n\n    throttleEpoch += 1;\n    // Reset count on new epoch\n    epochTransactionCount[_stakerAddress] = 0;\n  }\n\n  function getThrottleStartBlock() constant returns (uint) {\n    return throttleStartBlock;\n  }\n\n  function getThrottleResetBlock () constant returns (uint) {\n    return throttleResetBlock;\n  }\n\n  function getThrottleEpoch () constant returns (uint) {\n    return throttleEpoch;\n  }\n\n\n}\n",
  "sourcePath": "/Users/mokn/Development/Ethereum/pocket-core/contracts/token/StakableToken.sol",
  "compiler": {
    "name": "solc",
    "version": "0.4.18+commit.9cf6e910.Emscripten.clang"
  },
  "schemaVersion": "1.0.1",
  "updatedAt": "2018-02-02T23:19:09.367Z"
}